:10000000A2C00000BBC00000B9C00000B7C0000023
:10001000B5C00000B3C00000B1C00000AFC0000018
:10002000ADC00000ABC00000A9C0000022C40000A9
:100030007FC40000A3C00000A1C000009FC000005A
:100040009DC000009BC0000099C0000097C0000048
:1000500095C0000093C0000091C000008FC0000058
:100060008DC000008BC0000089C0000087C0000068
:1000700085C0000000010000AB001200020000BDBE
:10008000002200220000DF003F00210000CF000915
:10009000000300001E01040103090422010E0203F3
:1000A0000904320112000001C10600120100020021
:1000B000000020C0167C0400010102000109022298
:1000C00000010100C0320904000001030101000920
:1000D0002111010001223F000705830308000105EB
:1000E000010906A10175019508050719E029E71521
:1000F00000250181029501750881039505750105AB
:10010000081901290591029501750391039506755A
:1001100008150025680507190029688100C0040337
:1001200009040E03690062006E00540065006F0050
:100130000000120343006100740062006F00610060
:1001400072006400000011241FBECFEFD2E0DEBFBA
:10015000CDBF11E0A0E0B1E0E4E2FCE002C0059018
:100160000D92A23FB107D9F712E0A2EFB1E001C0B2
:100170001D92A634B107E1F702D352C541CF809159
:10018000F201882391F088E08093FF011092000231
:1001900029D38FEF90E7A2E081509040A040E1F793
:1001A00000C000008CE268E011C084E08093FF0191
:1001B0001092000217D38FEF90E7A2E08150904099
:1001C000A040E1F700C0000080E066E045C380E8A1
:1001D000809361001092610014B894EF97B91AB837
:1001E0008FEF85B998B98BB9549A5C9AEAE0F2E03E
:1001F000119282E0E634F807D9F7DDD25C98EFD2AD
:100200008823E9F35C9A8FEF93EDA0E3815090404F
:10021000A040E1F700C000005C9808958C3318F509
:10022000282F30E0F901E65FFD4F9081913041F4D5
:1002300026583E4FF90180811816B4F080E00895E9
:1002400040913C0150913D01F1E04A375F0731F0A8
:10025000923021F4225C3E4FF90103C0480F511D3A
:10026000FA018081089580E008950F931F93CF9342
:10027000DF93C9EED1E000E012E08991CFDFF80111
:1002800081938F01F1E0CF3EDF07B9F78091F30151
:100290008093FF01A7D2DF91CF911F910F91089515
:1002A000DF93CF930F92CDB7DEB7282F30E0F9015F
:1002B000E65FFD4F4081413021F4F901E658FE4FE1
:1002C00006C0E0913C01F0913D01E20FF31F9081E7
:1002D000265F3D4FF9011082913F50F09D3F09F09C
:1002E00059C0433009F456C08091F3018B7F19C087
:1002F00097FF1BC08091F201882341F0913821F4CF
:100300008091F301877F0DC0903911F0903821F46E
:100310008091F3018F7705C09F7790958091F301CD
:1003200089238093F301A1DF35C0E9EEF1E090E08D
:100330002191281759F09F5F9630D1F707C0E92F18
:10034000F0E0E751FE4F218120839F5F9630B8F3A4
:1003500089838BDF9091F6018981981759F4109267
:10036000FA011092F90181E090E09093FC018093F2
:10037000FB010CC01092F8011092F7011092FA01E3
:100380001092F9011092FC011092FB011092FE01F3
:100390001092FD010F90CF91DF910895DF93CF93DD
:1003A0000F92CDB7DEB74091F301282F30E0909146
:1003B0002D02992329F4942F9D7D21F052E003C052
:1003C00051E001C05FEFF901E65FFD4F508351300E
:1003D00021F4F901E658FE4F06C0E0913C01F0918E
:1003E0003D01E80FF11D9081913F08F482C09D3FCF
:1003F00021F5513021F48BE264E02ED2CBC0842F62
:10040000847421F444604093F30105C0265F3D4F9E
:1004100083E0D9018C938091F3018093FF018BE2FB
:1004200080930002DFD18FEF90E7A2E081509040EF
:10043000A040E1F700C0000090C09E3FF1F4809121
:10044000F4019091F501009749F090933D0180935C
:100450003C011092F5011092F4011CC080913C0106
:1004600090913D019093F5018093F4018AE791E02A
:1004700090933D0180933C010BC09C3F69F481E067
:100480009091F201911180E08093F201882311F0A4
:100490005C9A80C05C987EC0913F79F420913C01C9
:1004A00030913D018EE391E02817390709F472C0BD
:1004B000B1E02A373B07B9F411C0923F09F06AC096
:1004C00020913C0130913D0180E091E028173907EF
:1004D00009F460C0F1E02A373F0729F49093F50151
:1004E0008093F40104C090933D0180933C0147DE6A
:1004F00051C097FD1EC09091ED019093EE01909137
:10050000EC019093ED019091EB019093EC019091AF
:10051000EA019093EB019091E9019093EA018093B5
:10052000E9018983A2DE9091F60189819817F1F49F
:1005300016C08091F201882331F0913811F448609F
:1005400005C0903911F0903821F440684093F301D0
:1005500004C09F77942B9093F30187DE1BC081E04A
:1005600090E09093FA018093F90110C08093F60116
:1005700081E090E09093F8018093F7011092FA01E6
:100580001092F9011092FC011092FB011092FE01F1
:100590001092FD010F90CF91DF9108958091FD01A0
:1005A0009091FE01009719F12091FB013091FC011F
:1005B00036952795369527958217930710F401965F
:1005C00036C081E090E09093FE018093FD01809120
:1005D000F3018093FF018091F60120DE80930002F9
:1005E00001D1882309F05CC010920002FBC0809109
:1005F000F9019091FA010097F9F04091F7015091BB
:10060000F80120912D02222319F025E030E002C0EC
:100610002EE130E0240F351F8217930730F4019646
:100620009093FA018093F901089581E090E090930E
:10063000FE018093FD0108952091FB013091FC01A2
:100640008091F7019091F80121153105D1F0C29602
:100650002817390738F42F5F3F4F3093FC01209360
:10066000FB0108951092F6011092FC011092FB011B
:100670001092F8011092F7011092FA011092F9010C
:100680000895009769F08A3F910530F401969093A0
:10069000F8018093F70108951092F8011092F70184
:1006A00008958F929F92AF92BF92CF92DF92EF9276
:1006B000FF920F931F93CF93DF9306EB11E0C0ECF3
:1006C000D1E09924D801ED91FC915E01988190953B
:1006D000808189238083B5E0BA95F1F7000065EC4D
:1006E000E62E61E0F62E5DEDC52E51E0D52E892C6B
:1006F000D701ED91FD917D01D6018D916D01908124
:100700008923282D30E049F4265F3D4FF90180818F
:10071000882359F4882D42DE08C0265F3D4FD90159
:100720008C91882311F0882DBBDDB5E08B0EEDEDAB
:10073000EE16E1E0FE06E1F6D801ED91FD918D01A6
:1007400021968081D5019C91892B80839394B92D2A
:10075000B53009F0B7CF22DFEFE1FEE43197F1F7D2
:1007600000C00000DF91CF911F910F91FF90EF909B
:10077000DF90CF90BF90AF909F908F90089584B7F7
:10078000877F84BF88E10FB6F89480936000109251
:1007900060000FBE90E080E80FB6F894809361008F
:1007A000909361000FBE13DD7CDFFECF8091E800E7
:1007B00080FFFCCF089580EA8093D80086E089BD51
:1007C00009B400FEFDCF80E88093D8001092E000CD
:1007D000109207028CE08093E20078940895809153
:1007E0000702089580910702882391F18FB7F8944A
:1007F00093E09093E9009091E4009E5C23E03091B7
:10080000E80035FD0EC08FBF80910702882301F1FB
:100810008091E4008917F1F08FB7F8942093E900F4
:10082000EECF9091FF019093F1001092F100E0E083
:10083000F2E091919093F10092E0E630F907C9F768
:100840009AE39093E800109208028FBF80E0089529
:100850008FEF08958FEF08956093FF01809300025A
:10086000C1DF882329F41092FF0110920002BACF51
:1008700008951F920F920FB60F9211242F938F930A
:100880009F93EF93FF938091E1001092E10083FF2B
:100890000FC01092E90091E09093EB001092EC00F1
:1008A00092E29093ED0098E09093F000109207028E
:1008B00082FF34C080910702882381F12091F001EA
:1008C000222361F1809109028F5F8093090290E0F9
:1008D00083709070009711F583E08093E900809118
:1008E000E80085FF1BC0809108028F5F809308029B
:1008F0008217A1F4109208028091FF018093F10009
:100900001092F100E0E0F2E081918093F10082E04A
:10091000E630F807C9F78AE38093E800FF91EF918A
:100920009F918F912F910F900FBE0F901F90189550
:100930001F920F920FB60F921124CF92DF92EF9277
:10094000FF920F931F932F933F934F935F936F9358
:100950007F938F939F93AF93BF93EF93FF93DF9317
:10096000CF930F92CDB7DEB71092E9008091E800E7
:1009700083FF39C12091F1003091F1008091F100A5
:10098000C82EDD244091F100942F80E0C82AD92A96
:100990000091F10010E04091F100942F80E0082BCD
:1009A000192B6091F100A091F10082EF8093E80093
:1009B000363009F059C08BE790E09C01255030405B
:1009C000FC013797459154914C155D05F9F4F901F7
:1009D0004591549140175107C9F42E5F3F4FF901DB
:1009E000859194912E5F3F4FF9012491462F50E05D
:1009F0007A2F60E0462B572B4F3F510519F010F02E
:100A00004FEF50E0421750F4242F08C00796295F9B
:100A10003F4FF0E08C3A9F0799F6E5C0AEEF40916A
:100A2000E80050E0BA016570707061157105B9F3A6
:100A300042FDDCC0322F213208F030E2AC01632FDE
:100A400007C0FA014F5F5F4FE491E093F1006150FE
:100A50006623B9F7830F911D231BA093E80022237F
:100A6000F1F63032E1F2C2C0353049F48EEF8093B6
:100A7000E8009CDE8C2D80688093E300B7C039309D
:100A800031F5222309F069C0C09207028EEF8093EE
:100A9000E80041E085EA90E04093E900FC0101961E
:100AA000E491E093EB00EE2369F09C012F5F3F4F50
:100AB000FC0184918093EC00C9010196F901249115
:100AC0002093ED004F5F453039F78EE141C038305B
:100AD00039F4203809F041C069DE8091070261C015
:100AE0003323A9F4298362DE2981223851F400934B
:100AF000E9009091EB0081E095FF80E01092E90021
:100B000001C080E08093F1001092F10068C03130A4
:100B100011F0333011F5223001F5C114D104E9F49C
:100B2000402F4F77842F81508430B8F48EEF80931C
:100B3000E8004093E900333009F455C089E180931F
:100B4000EB0081E090E002C0880F991F4A95E2F720
:100B50008093EA001092EA0049C00115110509F0DE
:100B600042C0213A09F5313089F420DE8091FF013D
:100B70008093F1001092F100E0E0F2E08191809327
:100B8000F10022E0E630F207C9F729C0323021F443
:100B90000DDE8091F00105C0333029F507DE80912C
:100BA000F1018093F1001BC02132E9F4393061F486
:100BB0008091E80082FFFCCF8091F10080930602D3
:100BC0008BEF8093E8000BC03A3029F4D092F0010B
:100BD0001092080204C03B3031F4C092F1018EEF54
:100BE0008093E80003C081E28093EB000F90CF91E7
:100BF000DF91FF91EF91BF91AF919F918F917F9185
:100C00006F915F914F913F912F911F910F91FF90A5
:100C1000EF90DF90CF900F900FBE0F901F90189520
:040C2000F894FFCF76
:100C240029F1312B35FD14090D1E2A381C061F84A9
:100C3400161918208110040E21820C1308222C1777
:100C4400151123FF1B120A24C0050F0B2528360794
:100C54001A263037331D272EF2342F2D000129F1A7
:100C6400312B35FD1D04141E2A1B161A1F8406077A
:100C74000820811909152182050A17222C110B1C41
:100C840023FF100D1824C0360E0C2528370F12260A
:100C940030383313272EF2342F2D29F1002B4653ED
:100CA4006255543A2A595C5F3B845A5D603C815BCF
:100CB4005E613D826357353EFC2A28FD3FFF4C5060
:100CC4004A40FE4951524128004F4D4200004E4BCC
:100CD4004345F20029442800280028002800280061
:100CE4008040201004290029002900290029002916
:100CF40000230023002300230023002300402008B6
:100D0400040201804020100201FFFFFFFFFFFFFFEC
:020D14007D015F
:00000001FF
