:10000000A2C00000BBC00000B9C00000B7C0000023
:10001000B5C00000B3C00000B1C00000AFC0000018
:10002000ADC00000ABC00000A9C0000018C50000B2
:1000300075C50000A3C00000A1C000009FC0000063
:100040009DC000009BC0000099C0000097C0000048
:1000500095C0000093C0000091C000008FC0000058
:100060008DC000008BC0000089C0000087C0000068
:1000700085C0000000010000AB001200020000BDBE
:10008000002200220000DF003F00210000CF000915
:10009000000300001E01040103090422010E0203F3
:1000A0000904320112000001C10600120100020021
:1000B000000020C0167C0400010102000109022298
:1000C00000010100C0320904000001030101000920
:1000D0002111010001223F000705830308000105EB
:1000E000010906A10175019508050719E029E71521
:1000F00000250181029501750881039505750105AB
:10010000081901290591029501750391039506755A
:1001100008150025680507190029688100C0040337
:1001200009040E03690062006E00540065006F0050
:100130000000120343006100740062006F00610060
:1001400072006400000011241FBECFEFD2E0DEBFBA
:10015000CDBF12E0A0E0B1E0E0E1FEE002C005901A
:100160000D92A433B107D9F712E0A4E3B2E001C0C5
:100170001D92A838B107E1F7F8D348C641CF80E80F
:10018000809361001092610014B894EF97B98AB916
:100190008FEF85B998B98BB9549A5C9AECE4F2E088
:1001A000119222E0E838F207D9F7FBD35C980DD41E
:1001B0008823E9F35C9A8FEF93ED20E38150904020
:1001C0002040E1F700C000005C98089581E0809332
:1001D0003F0262E086E036D460E084E033D460E041
:1001E00087E130D462E085E02DD460E082E12AD45A
:1001F00060E084E027D460E085E124D460E087E01B
:1002000021C4CF9310923F02C8E060E08AE21AD482
:10021000C150D9F7CF91089580914002882391F081
:1002200088E08093410210924202D2D32FEF80E700
:1002300092E0215080409040E1F700C0000068E06B
:100240008CE211C084E08093410210924202C0D33C
:100250002FEF80E792E0215080409040E1F700C00E
:10026000000066E080E0EEC38C3310F5282F30E00C
:10027000F901E45BFD4F9081913039F4F901E158C7
:10028000FE4F80811816ACF013C0409109015091C7
:100290000A0161E04F37560731F0923021F4F9013D
:1002A000E554FE4F03C0FA01E80FF11D8081089567
:1002B00080E008950F931F93CF93DF93C2E0D1E0C6
:1002C00002E412E08991D0DFF80181938F01F1E01F
:1002D000C830DF07B9F780913E0280934102DF9179
:1002E000CF911F910F9174C3CF93DF93D82F282FF5
:1002F00030E0F901E45BFD4FC081C13021F4F90128
:10030000E158FE4F13C0E0910901F0910A01E20F9C
:10031000F31F9081C63059F440913C0250913D0248
:100320004115510521F0FA01E20FF31F9081F90107
:10033000E45BFD4F1082913F08F490C09D3F39F47B
:10034000C33009F4DCC080913E028B7FA0C0913F96
:1003500071F580913E02C53011F48E7F98C08D7F7B
:1003600080933E02A7DF809100018D1373C08091BE
:100370003A0290913B02892B09F46CC0C43009F415
:1003800069C080913E02811165C080910901909100
:100390000A0121E08B3B920709F45CC08F57914022
:1003A00019F48BEB91E02DC08BEB91E031C0923FC3
:1003B000A9F580913E02C53011F48F7E68C08F7D13
:1003C00080933E0277DF809100018D1343C08091BE
:1003D0003A0290913B02892B09F43CC0C430D1F120
:1003E00080913E02811136C08091090190910A01ED
:1003F00021E0873F920771F18F57914039F487EFE1
:1004000091E090933D0280933C0206C087EF91E01B
:1004100090930A0180930901FFDE1CC0933F09F00D
:100420006EC080913E028D7F80933E0243DF8091BB
:1004300000018D130FC080913A0290913B02892BED
:1004400049F0C23039F080913E02811103C060E072
:100450008CE2F8D28FEF8093000141C097FF1CC05F
:1004600080914002882341F0913821F480913E022E
:10047000877F0DC0903911F0903821F480913E02B1
:100480008F7705C09F77909580913E028923809356
:100490003E02DF91CF910ECFE2E0F1E090E081915A
:1004A0008D1759F09F5F9630D1F707C0E92FF0E024
:1004B000EE5FFE4F818180839F5F9630B9F7FADE51
:1004C000809100018D130BC01092390210923802F6
:1004D00081E090E090933702809336020CC0109236
:1004E0003B0210923A021092390210923802109296
:1004F0003702109236021092350210923402DF91C8
:10050000CF910895CF93C82F60913E02962F9D7D85
:10051000282F30E080916F02811104C0992321F0CF
:1005200082E003C081E001C08FEFF901E45BFD4F81
:100530008083813021F4F901E158FE4F06C0E0913B
:100540000901F0910A01EC0FF11D8081811122C097
:100550004C2F50E0E0910901F0910A01E40FF51FE2
:100560008081992311F092E001C09FEFF901E45BD3
:10057000FD4F908381110EC0A0913C02B0913D02CD
:10058000109709F4B8C06111B6C0A40FB51F8C91C3
:1005900096E09083813F08F499C08D3F19F5F901E9
:1005A000E45BFD4F8081813019F464E08BE264C02C
:1005B000611104C084E080933E0202C083E0808326
:1005C00080913E02809341028BE28093420200D2EE
:1005D0002FEF80E792E0215080409040E1F700C08B
:1005E0000000AAC08E3F49F520913C0230913D02A7
:1005F0002115310549F030930A0120930901109229
:100600003D0210923C020EC02091090130910A0176
:1006100030933D0220933C0223E431E030930A0101
:100620002093090120913C0230913D02232BF9F4E3
:10063000809140028823E9F01AC08C3FF9F4F90157
:10064000E45BFD4F80818130B1F4862F827299F096
:1006500081E090914002911180E0809340028111ED
:1006600006C020913C0230913D02232B11F05C9A90
:1006700064C05C9862C08CE2E5D15FC0813FA9F4A0
:10068000862F827239F0F901E45BFD4F85E08083AB
:10069000616008C0662329F0F901E45BFD4F84E046
:1006A0008083626060933E0247C0823F11F46062C3
:1006B000F9CF8B3F41F481E090910101911180E0ED
:1006C000809301013AC0833FC1F5EBCF87FF13C090
:1006D00090914002992331F0813811F46860E2CFA3
:1006E000803911F0803811F46068DCCF8F77862B69
:1006F00080933E0221C0809100018C1307C020919D
:100700003602309137022A303105B8F08091060167
:100710008093070180910501809306018091040177
:10072000809305018091030180930401809102016F
:1007300080930301C0930201BDDD809100018C1301
:1007400007C081E090E0909339028093380210C096
:10075000C093000181E090E090933B0280933A02C5
:10076000109239021092380210923702109236021B
:100770001092350210923402CF9108958091340284
:1007800090913502009739F120913602309137026D
:1007900036952795369527958217930710F401967D
:1007A0003CC081E090E090933502809334028091C8
:1007B0000101882309F467C080913E0280934102C1
:1007C0008091000151DD8093420202D181115BC012
:1007D00010924202FDC0209138023091390280917E
:1007E0003A0290913B0221153105E1F040916F02F0
:1007F000442319F045E050E002C04EE150E0840F80
:10080000951F2817390738F42F5F3F4F309339026F
:1008100020933802089581E090E090933502809310
:1008200034020895209136023091370221153105A6
:10083000D9F0C2962817390738F42F5F3F4F30930D
:1008400037022093360208958FEF809300011092B3
:1008500037021092360210923B0210923A02109226
:100860003902109238020895009769F08A3F910585
:1008700030F4019690933B0280933A0208951092CF
:100880003B0210923A0208957F928F929F92AF920C
:10089000BF92CF92DF92EF92FF920F931F93CF936D
:1008A000DF9379E3E72E71E0F72E04E311E0912C5A
:1008B000D701CD91DD917D01F80171908F01972DC8
:1008C0009095888189238883F5E0FA95F1F70000F7
:1008D0005CE1C52E51E0D52E60E1A62E61E0B62E7A
:1008E000812C882D890DD601ED91FD916D01D501E9
:1008F0009D915D0120819223282F30E0F901E45B76
:10090000FD4F911105C09081911105C0FBDD03C021
:1009100090819111E9DCB5E08B0EECE38E12E1CF12
:1009200088818729888393949B12C2CF80913F024C
:100930004F9904C0811104C049DC02C0811161DCFF
:100940001DDF8FE19EE40197F1F700C00000DF9109
:10095000CF911F910F91FF90EF90DF90CF90BF90BC
:10096000AF909F908F907F90089584B7877F84BFCA
:1009700088E10FB6F89480936000109260000FBE7B
:1009800090E080E80FB6F894809361009093610046
:100990000FBEF5DB79DFFECF8091E80080FFFCCF52
:1009A000089580EA8093D80086E089BD09B400FEEE
:1009B000FDCF80E88093D8001092E00010924902A9
:1009C0008CE08093E2007894089580914902089524
:1009D00080914902882391F18FB7F89493E0909326
:1009E000E9009091E4009E5C23E03091E80035FD41
:1009F0000EC08FBF80914902882301F18091E400ED
:100A00008917F1F08FB7F8942093E900EECF909119
:100A100041029093F1001092F100E2E4F2E0919132
:100A20009093F10092E0E834F907C9F79AE39093C4
:100A3000E80010924A028FBF80E008958FEF08957A
:100A40008FEF08956093410280934202C1DF8823B3
:100A500029F41092410210924202BACF08951F92D7
:100A60000F920FB60F9211242F938F939F93EF93B2
:100A7000FF938091E1001092E10083FF0FC010927C
:100A8000E90091E09093EB001092EC0092E29093D9
:100A9000ED0098E09093F0001092490282FF34C07C
:100AA00080914902882381F120910B01222361F179
:100AB00080914B028F5F80934B0290E08370907027
:100AC000009711F583E08093E9008091E80085FFAD
:100AD0001BC080914A028F5F80934A028217A1F463
:100AE00010924A02809141028093F1001092F1002D
:100AF000E2E4F2E081918093F10082E0E834F807CB
:100B0000C9F78AE38093E800FF91EF919F918F915D
:100B10002F910F900FBE0F901F9018951F920F925C
:100B20000FB60F921124CF92DF92EF92FF920F93A4
:100B30001F932F933F934F935F936F937F938F9365
:100B40009F93AF93BF93EF93FF93DF93CF930F9256
:100B5000CDB7DEB71092E9008091E80083FF39C17C
:100B60002091F1003091F1008091F100C82EDD2438
:100B70004091F100942F80E0C82AD92A0091F10019
:100B800010E04091F100942F80E0082B192B609128
:100B9000F100A091F10082EF8093E800363009F077
:100BA00059C08BE790E09C0125503040FC013797FD
:100BB000459154914C155D05F9F4F9014591549115
:100BC00040175107C9F42E5F3F4FF9018591949169
:100BD0002E5F3F4FF9012491462F50E07A2F60E0BD
:100BE000462B572B4F3F510519F010F04FEF50E0B7
:100BF000421750F4242F08C00796295F3F4FF0E0BA
:100C00008C3A9F0799F6E5C0AEEF4091E80050E0BE
:100C1000BA016570707061157105B9F342FDDCC0F1
:100C2000322F213208F030E2AC01632F07C0FA0105
:100C30004F5F5F4FE491E093F10061506623B9F795
:100C4000830F911D231BA093E8002223F1F630327D
:100C5000E1F2C2C0353049F48EEF8093E8009CDEAB
:100C60008C2D80688093E300B7C0393031F52223A2
:100C700009F069C0C09249028EEF8093E80041E01C
:100C800085EA90E04093E900FC010196E491E0934D
:100C9000EB00EE2369F09C012F5F3F4FFC01849134
:100CA0008093EC00C9010196F90124912093ED0095
:100CB0004F5F453039F78EE141C0383039F4203884
:100CC00009F041C069DE8091490261C03323A9F473
:100CD000298362DE2981223851F40093E900909142
:100CE000EB0081E095FF80E01092E90001C080E018
:100CF0008093F1001092F10068C0313011F0333070
:100D000011F5223001F5C114D104E9F4402F4F77D9
:100D1000842F81508430B8F48EEF8093E8004093A4
:100D2000E900333009F455C089E18093EB0081E09C
:100D300090E002C0880F991F4A95E2F78093EA007D
:100D40001092EA0049C00115110509F042C0213A8C
:100D500009F5313089F420DE809141028093F10061
:100D60001092F100E2E4F2E081918093F10022E040
:100D7000E834F207C9F729C0323021F40DDE809142
:100D80000B0105C0333029F507DE80910C018093FB
:100D9000F1001BC02132E9F4393061F48091E800A0
:100DA00082FFFCCF8091F100809348028BEF80930B
:100DB000E8000BC03A3029F4D0920B0110924A029D
:100DC00004C03B3031F4C0920C018EEF8093E800F8
:100DD00003C081E28093EB000F90CF91DF91FF91F0
:100DE000EF91BF91AF919F918F917F916F915F91A3
:100DF0004F913F912F911F910F91FF90EF90DF90B6
:100E0000CF900F900FBE0F901F901895F894FFCFC2
:100E1000FF01FFFFFFFFFFFFFFF7017D01802900BA
:100E2000402008040201804020100201290029000E
:100E30002900290029002900230023002300230082
:100E400023002300804020100428002800280028C8
:100E50000028002982902B35FD004E4B1E84005047
:100E60004A1F840051522081004F4D212C0028350B
:100E7000222C62555423FF595C5F24C05A5D6025C3
:100E8000285B5E612653635756272EA028292DFB29
:100E9000F1902B462B0000003A840000003B8400B8
:100EA00000003C810000003DF30000353EFC2A2894
:100EB000283FFF4C504A40FE4951524100004F4DDF
:100EC0004247004E4B4345F248294429F1902B35C7
:100ED000FD1D04141E841B161A1F8406070820819A
:100EE00019091521F3050A17222C110B1C23FF10D9
:100EF0000D1824C0360E0C2531370F12263038332A
:100F000013272EF2342F2D29F1902B35FD14090DC6
:100F10001E84381C061F84161918208110040E2107
:100F2000F30C1308222C17151123FF1B120A24C0DF
:100F3000050F0B253136071A263037331D272EF2C1
:040F4000342F2D001D
:00000001FF
