:10000000A2C00000BBC00000B9C00000B7C0000023
:10001000B5C00000B3C00000B1C00000AFC0000018
:10002000ADC00000ABC00000A9C00000AAC4000021
:1000300007C50000A3C00000A1C000009FC00000D1
:100040009DC000009BC0000099C0000097C0000048
:1000500095C0000093C0000091C000008FC0000058
:100060008DC000008BC0000089C0000087C0000068
:1000700085C0000000010000AB001200020000BDBE
:10008000002200220000DF003F00210000CF000915
:10009000000300001E01040103090422010E0203F3
:1000A0000904320112000001C10600120100020021
:1000B000000020C0167C0400010102000109022298
:1000C00000010100C0320904000001030101000920
:1000D0002111010001223F000705830308000105EB
:1000E000010906A10175019508050719E029E71521
:1000F00000250181029501750881039505750105AB
:10010000081901290591029501750391039506755A
:1001100008150025680507190029688100C0040337
:1001200009040E03690062006E00540065006F0050
:100130000000120343006100740062006F00610060
:1001400072006400000011241FBECFEFD2E0DEBFBA
:10015000CDBF11E0A0E0B1E0E4E3FDE002C0059016
:100160000D92A43FB107D9F712E0A4EFB1E001C0AE
:100170001D92A834B107E1F78AD3DAC541CF809147
:10018000F701882391F088E0809301021092020227
:10019000B1D38FEF90E7A2E081509040A040E1F70B
:1001A00000C000008CE268E011C084E0809301028E
:1001B000109202029FD38FEF90E7A2E0815090400F
:1001C000A040E1F700C0000080E066E0CDC380E819
:1001D000809361001092610014B894EF97B91AB837
:1001E0008FEF85B998B98BB9549A5C9AECE0F2E03C
:1001F000119282E0E834F807D9F765D35C9877D399
:100200008823E9F35C9A8FEF93EDA0E3815090404F
:10021000A040E1F700C000005C9808958C3318F509
:10022000282F30E0F901E45FFD4F9081913041F4D7
:1002300026583E4FF90180811816B4F080E00895E9
:1002400040913C0150913D01F1E04A375F0731F0A8
:10025000923021F4225C3E4FF90103C0480F511D3A
:10026000FA018081089580E00895FF920F931F9313
:10027000CF93DF93C9EED1E002E012E0FF24FA94BD
:100280008881CCDFD8018D938D018091F00181119F
:10029000F8822196B1E0CF3EDB0791F78091F4011F
:1002A0008093010227D38091F0018823D1F08FEF52
:1002B00090E7A2E081509040A040E1F700C000002C
:1002C0001092020210920302109204021092050290
:1002D00010920602109207028091F40180930102AD
:1002E00009D3DF91CF911F910F91FF900895DF9374
:1002F000CF930F92CDB7DEB7282F30E0F901E45F3E
:10030000FD4F408110824130C1F426583E4FF90123
:10031000908197FF0AC08091F701882309F43FC0BC
:100320009138B9F19039D9F53CC020913C01309118
:100330003D01F1E02A373F07A9F4E0913C01F0913B
:100340003D01E80FF11D9081913F50F09D3F09F074
:100350006CC0433009F469C08091F4018B7F2AC0DE
:10036000413041F420913C0130913D0191E02A3728
:10037000390721F5E0913C01F0913D01E80FF11DB5
:10038000908197FF1BC08091F701882341F0913045
:1003900021F48091F401877F0DC0903111F09038E5
:1003A00021F48091F4018F7705C09F77909580911B
:1003B000F40189238093F40158DF37C090E0E92FDE
:1003C000F0E0E751FE4F2081281759F09F5F9630EB
:1003D000B1F707C0E92FF0E0E751FE4F21812083FC
:1003E0009F5F9630B8F3898340DF9091F80189814F
:1003F000981759F41092FC011092FB0181E090E0F3
:100400009093FE018093FD010CC01092FA011092AE
:10041000F9011092FC011092FB011092FE01109262
:10042000FD01109200021092FF010F90CF91DF9119
:100430000895DF93CF930F92CDB7DEB76091F401AB
:10044000482F50E090912F02992329F4962F95750B
:1004500021F092E003C091E001C09FEFFA01E45F58
:10046000FD4F908370912F02772309F445C0FA0164
:10047000E658FE4F908197FF36C0913F08F4DDC0EB
:100480009D3F21F48BE264E06FD208C19E3F81F46E
:100490008091F5019091F601009709F087C0809155
:1004A0003C0190913D019093F6018093F5018CC041
:1004B0009C3F59F481E09091F001911180E080938C
:1004C000F001882309F486C079C09B3F09F0E6C09B
:1004D00081E09091F701911180E08093F7018823EA
:1004E00009F46CC077C020913C0130913D0191E04E
:1004F0002A37390709F072C020913C0130913D0143
:10050000F901E80FF11D9081913F08F465C0913F1A
:1005100051F48EE391E028173907D9F1B1E02A3779
:100520003B0789F40BC0923FA1F480E091E02817CB
:10053000390779F1F1E02A373F0729F49093F60162
:100540008093F50104C090933D0180933C0117DE38
:10055000A5C09D3FF1F4862F847421F464606093FC
:10056000F40105C0445F5D4F83E0DA018C93809114
:10057000F401809301028BE280930202BBD18FEFE2
:1005800090E7A2E081509040A040E1F700C0000059
:1005900068C046585E4FDA018C918E3F09F07EC0EC
:1005A0008091F5019091F601009751F090933D01F3
:1005B00080933C011092F6011092F5015C986EC098
:1005C0003093F6012093F5018AE791E090933D0185
:1005D00080933C015C9A62C0772341F020913C01FA
:1005E00030913D01B1E02A373B0749F4E0913C01ED
:1005F000F0913D01E80FF11D908197FD1EC0909193
:10060000ED019093EE019091EC019093ED019091AA
:10061000EB019093EC019091EA019093EB019091A2
:10062000E9019093EA018093E90189831EDE9091AC
:10063000F80189819817F1F416C08091F701882399
:1006400031F0913811F4686005C0903911F090389C
:1006500021F460686093F40104C09F77962B909317
:10066000F40103DE1BC081E090E09093FC018093D5
:10067000FB0110C08093F80181E090E09093FA01B3
:100680008093F9011092FC011092FB011092FE017F
:100690001092FD01109200021092FF010F90CF9175
:1006A000DF9108958F929F92AF92BF92CF92DF9287
:1006B000EF92FF920F931F93CF93DF9306EB11E01E
:1006C000C0ECD1E09924D801ED91FC915E019881B4
:1006D0009095808189238083B5E0BA95F1F7000079
:1006E00065ECE62E61E0F62E5DEDC52E51E0D52ECF
:1006F000892CD701ED91FD917D01D6018D916D0180
:1007000090818923282D30E049F4245F3D4FF90181
:100710008081882359F4882D8CDE08C0245F3D4FEA
:10072000D9018C91882311F0882DE1DDB5E08B0E85
:10073000EDEDEE16E1E0FE06E1F6D801ED91FD915A
:100740008D0121968081D5019C91892B8083939482
:10075000B92DB53009F0B7CFEFE1FEE43197F1F7ED
:1007600000C000008091F001882309F483C08091CB
:10077000FF0190910002009721F12091FD0130913D
:10078000FE0136952795369527958217930710F425
:10079000019637C081E090E0909300028093FF01C2
:1007A0008091F401809301028091F80137DD8093FC
:1007B0000202A0D0882309F05DC0109202029AD0F4
:1007C00059C08091FB019091FC010097F9F0409194
:1007D000F9015091FA0120912F02222319F025E00E
:1007E00030E002C02EE130E0240F351F821793075E
:1007F00030F401969093FC018093FB013BC081E0B3
:1008000090E0909300028093FF0134C02091FD019D
:100810003091FE018091F9019091FA012115310585
:10082000D1F0C2962817390738F42F5F3F4F309325
:10083000FE012093FD011EC01092F8011092FE01EE
:100840001092FD011092FA011092F9011092FC0130
:100850001092FB010FC0009769F08A3F910530F4B8
:1008600001969093FA018093F90104C01092FA0165
:100870001092F901DF91CF911F910F91FF90EF90AE
:10088000DF90CF90BF90AF909F908F90089584B7E6
:10089000877F84BF88E10FB6F89480936000109240
:1008A00060000FBE90E080E80FB6F894809361007E
:1008B000909361000FBE8BDCF5DEFECF8091E800E7
:1008C00080FFFCCF089580EA8093D80086E089BD40
:1008D00009B400FEFDCF80E88093D8001092E000BC
:1008E000109209028CE08093E20078940895809140
:1008F0000902089580910902882391F18FB7F89435
:1009000093E09093E9009091E4009E5C23E03091A5
:10091000E80035FD0EC08FBF80910902882301F1E8
:100920008091E4008917F1F08FB7F8942093E900E3
:10093000EECF909101029093F1001092F100E2E06D
:10094000F2E091919093F10092E0E830F907C9F755
:100950009AE39093E80010920A028FBF80E0089516
:100960008FEF08958FEF0895609301028093020244
:10097000C1DF882329F41092010210920202BACF3B
:1009800008951F920F920FB60F9211242F938F93F9
:100990009F93EF93FF938091E1001092E10083FF1A
:1009A0000FC01092E90091E09093EB001092EC00E0
:1009B00092E29093ED0098E09093F000109209027B
:1009C00082FF34C080910902882381F12091F101D6
:1009D000222361F180910B028F5F80930B0290E0E4
:1009E00083709070009711F583E08093E900809107
:1009F000E80085FF1BC080910A028F5F80930A0286
:100A00008217A1F410920A02809101028093F100F2
:100A10001092F100E2E0F2E081918093F10082E037
:100A2000E830F807C9F78AE38093E800FF91EF9177
:100A30009F918F912F910F900FBE0F901F9018953F
:100A40001F920F920FB60F921124CF92DF92EF9266
:100A5000FF920F931F932F933F934F935F936F9347
:100A60007F938F939F93AF93BF93EF93FF93DF9306
:100A7000CF930F92CDB7DEB71092E9008091E800D6
:100A800083FF39C12091F1003091F1008091F10094
:100A9000C82EDD244091F100942F80E0C82AD92A85
:100AA0000091F10010E04091F100942F80E0082BBC
:100AB000192B6091F100A091F10082EF8093E80082
:100AC000363009F059C08BE790E09C01255030404A
:100AD000FC013797459154914C155D05F9F4F901E6
:100AE0004591549140175107C9F42E5F3F4FF901CA
:100AF000859194912E5F3F4FF9012491462F50E04C
:100B00007A2F60E0462B572B4F3F510519F010F01C
:100B10004FEF50E0421750F4242F08C00796295F8A
:100B20003F4FF0E08C3A9F0799F6E5C0AEEF409159
:100B3000E80050E0BA016570707061157105B9F395
:100B400042FDDCC0322F213208F030E2AC01632FCD
:100B500007C0FA014F5F5F4FE491E093F1006150ED
:100B60006623B9F7830F911D231BA093E80022236E
:100B7000F1F63032E1F2C2C0353049F48EEF8093A5
:100B8000E8009CDE8C2D80688093E300B7C039308C
:100B900031F5222309F069C0C09209028EEF8093DB
:100BA000E80041E085EA90E04093E900FC0101960D
:100BB000E491E093EB00EE2369F09C012F5F3F4F3F
:100BC000FC0184918093EC00C9010196F901249104
:100BD0002093ED004F5F453039F78EE141C038304A
:100BE00039F4203809F041C069DE8091090261C002
:100BF0003323A9F4298362DE2981223851F400933A
:100C0000E9009091EB0081E095FF80E01092E9000F
:100C100001C080E08093F1001092F10068C0313093
:100C200011F0333011F5223001F5C114D104E9F48B
:100C3000402F4F77842F81508430B8F48EEF80930B
:100C4000E8004093E900333009F455C089E180930E
:100C5000EB0081E090E002C0880F991F4A95E2F70F
:100C60008093EA001092EA0049C00115110509F0CD
:100C700042C0213A09F5313089F420DE8091010229
:100C80008093F1001092F100E2E0F2E08191809314
:100C9000F10022E0E830F207C9F729C0323021F430
:100CA0000DDE8091F10105C0333029F507DE80911A
:100CB000F2018093F1001BC02132E9F4393061F474
:100CC0008091E80082FFFCCF8091F10080930802C0
:100CD0008BEF8093E8000BC03A3029F4D092F101F9
:100CE00010920A0204C03B3031F4C092F2018EEF40
:100CF0008093E80003C081E28093EB000F90CF91D6
:100D0000DF91FF91EF91BF91AF919F918F917F9173
:100D10006F915F914F913F912F911F910F91FF9094
:100D2000EF90DF90CF900F900FBE0F901F9018950F
:040D3000F894FFCF65
:100D340029F1312B35FD14090D1E2A381C061F8498
:100D4400161918208110040E21820C1308222C1766
:100D5400151123FF1B120A24C0050F0B2528360783
:100D64001A263037331D272EF2342F2D000129F196
:100D7400312B35FD1D04141E2A1B161A1F84060769
:100D84000820811909152182050A17222C110B1C30
:100D940023FF100D1824C0360E0C2528370F1226F9
:100DA40030383313272EF2342F2D29FB002B4653D2
:100DB4006255543A2A595C5F3B845A5D603C815BBE
:100DC4005E613D826357353E2C2A28FD3FFF4C501F
:100DD4004A40FE4951524128004F4D4200004E4BBB
:100DE4004345FC0029442800280028002800280046
:100DF4008040201004290029002900290029002905
:100E040000230023002300230023002300402008A4
:100E1400040201804020100201FFFFFFFFFFFFFFDB
:040E2400017D01004B
:00000001FF
