:10000000A2C00000BBC00000B9C00000B7C0000023
:10001000B5C00000B3C00000B1C00000AFC0000018
:10002000ADC00000ABC00000A9C00000CAC3000002
:1000300027C40000A3C00000A1C000009FC00000B2
:100040009DC000009BC0000099C0000097C0000048
:1000500095C0000093C0000091C000008FC0000058
:100060008DC000008BC0000089C0000087C0000068
:1000700085C0000000010000AB001200020000BDBE
:10008000002200220000DF003F00210000CF000915
:10009000000300001E01040103090422010E0203F3
:1000A0000904320112000001C10600120100020021
:1000B000000020C0167C0400010102000109022298
:1000C00000010100C0320904000001030101000920
:1000D0002111010001223F000705830308000105EB
:1000E000010906A10175019508050719E029E71521
:1000F00000250181029501750881039505750105AB
:10010000081901290591029501750391039506755A
:1001100008150025680507190029688100C0040337
:1001200009040E03690062006E00540065006F0050
:100130000000120343006100740062006F00610060
:1001400072006400000011241FBECFEFD2E0DEBFBA
:10015000CDBF11E0A0E0B1E0E4E7FBE002C0059014
:100160000D92A23FB107D9F712E0A2EFB1E001C0B2
:100170001D92A334B107E1F7AAD2FAC441CF80E0BF
:1001800064E012D38FEF90E7A2E081509040A0404E
:10019000E1F700C0000080E066E006D38FEF90E753
:1001A000A2E081509040A040E1F700C0000080E054
:1001B00060E0FAC280E8809361001092610014B898
:1001C00094EF97B91AB88FEF85B998B98BB9549A4B
:1001D0005C9AE7E0F2E0119282E0E334F807D9F7A5
:1001E00092D25C98A4D28823E9F35C9A8FEF93EDC6
:1001F000A0E381509040A040E1F700C000005C986F
:1002000008958C33F8F490E0FC01E95FFD4F208104
:10021000213041F488589E4FFC01808118169CF0D3
:1002200080E008952091F201257521F080509F4FC4
:10023000FC0106C0E091B401F091B501E80FF91F8F
:100240008081089580E008950F931F93CF93DF93EB
:10025000C9EED1E00DEF11E08991D3DFF801819370
:100260008F01F1E0CF3EDF07B9F78091F201809373
:10027000FC0160D2DF91CF911F910F910895DF9320
:10028000CF930F92CDB7DEB7282F30E0F901E95FA9
:10029000FD4F40811082E091B401F091B501E20F71
:1002A000F31F9081913F50F09E3F09F05DC04230B6
:1002B00009F45AC08091F2018B7F1DC0413041F496
:1002C00028583E4FF901208127FF0EC0922F0EC003
:1002D000423051F428583E4FF9012081213821F451
:1002E0008091F2018D7F07C097FF09C09F7790959D
:1002F0008091F20189238093F201A6DF35C0E9EEF7
:10030000F1E090E02191281759F09F5F9630D1F7E6
:1003100007C0E92FF0E0E751FE4F218120839F5F66
:100320009630B8F3898390DF9091F3018981981713
:1003300059F41092F7011092F60181E090E0909349
:10034000F9018093F8010CC01092F5011092F401AC
:100350001092F7011092F6011092F9011092F80133
:100360001092FB011092FA010F90CF91DF91089546
:10037000DF93CF930F92CDB7DEB7482F50E0909127
:100380002A02992311F091E001C09FEFFA01E95F81
:10039000FD4F90832091B4013091B501D901A80F90
:1003A000B11D9C91913FC8F1913F41F481E0203013
:1003B000380709F498C080E091E009C0923F69F4E1
:1003C00091E02C33390709F48EC08CE391E09093CF
:1003D000B5018093B401D3DE86C09E3F09F083C08F
:1003E0008091F201982F947421F484608093F2013B
:1003F00002C082E080838091F2018093FC018BE255
:100400008093FD0197D18FEF90E7A2E0815090405B
:10041000A040E1F700C0000049C020912A02222339
:10042000F9F048585E4FDA012C9127FF19C0213F9F
:1004300038F02E3F09F057C08BE264E0B5D153C0CD
:10044000213849F48091F20180FF05C092E0908349
:1004500082608093F2012F778091F201822B24C079
:1004600097FD1EC09091ED019093EE019091EC01EB
:100470009093ED019091EB019093EC019091EA0142
:100480009093EB019091E9019093EA018093E90147
:100490008983DADE9091F3018981981781F408C08D
:1004A0009F778091F201892B8093F201CDDE1BC0F2
:1004B00081E090E09093F7018093F60110C0809363
:1004C000F30181E090E09093F5018093F4011092A4
:1004D000F7011092F6011092F9011092F8011092B2
:1004E000FB011092FA010F90CF91DF9108958F9246
:1004F0009F92AF92BF92CF92DF92EF92FF920F93B3
:100500001F93CF93DF9306EB11E0C0ECD1E0992469
:10051000D801ED91FC915E019881909580818923AD
:100520008083B5E0BA95F1F7000065ECE62E61E056
:10053000F62E5DEDC52E51E0D52E892CD701ED911B
:10054000FD917D01D6018D916D0190818923282D2A
:1005500030E049F4295F3D4FF9018081882359F447
:10056000882D06DF08C0295F3D4FD9018C91882373
:1005700011F0882D84DEB5E08B0EEDEDEE16E1E096
:10058000FE06E1F6D801ED91FD918D012196808165
:10059000D5019C91892B80839394B92DB53009F0B6
:1005A000B7CFEFE1FEE43197F1F700C00000809192
:1005B000FA019091FB01009721F12091F80130910F
:1005C000F90136952795369527958217930710F4EC
:1005D000019637C081E090E09093FB018093FA018F
:1005E0008091F2018093FC018091F3010ADE8093F7
:1005F000FD01A0D0882309F05DC01092FD019AD0C2
:1006000059C08091F6019091F7010097F9F040915F
:10061000F4015091F50120912A02222319F025E0DE
:1006200030E002C02EE130E0240F351F821793071F
:1006300030F401969093F7018093F6013BC081E07E
:1006400090E09093FB018093FA0134C02091F8016F
:100650003091F9018091F4019091F5012115310556
:10066000D1F0C2962817390738F42F5F3F4F3093E7
:10067000F9012093F8011EC01092F3011092F901C4
:100680001092F8011092F5011092F4011092F70106
:100690001092F6010FC0009769F08233910530F493
:1006A00001969093F5018093F40104C01092F50136
:1006B0001092F401DF91CF911F910F91FF90EF9075
:1006C000DF90CF90BF90AF909F908F90089584B7A8
:1006D000877F84BF88E10FB6F89480936000109202
:1006E00060000FBE90E080E80FB6F8948093610040
:1006F000909361000FBE5EDDFADEFECF8091E800D0
:1007000080FFFCCF089580EA8093D80086E089BD01
:1007100009B400FEFDCF80E88093D8001092E0007D
:10072000109204028CE08093E20078940895809106
:100730000402089580910402882391F18FB7F89400
:1007400093E09093E9009091E4009E5C23E0309167
:10075000E80035FD0EC08FBF80910402882301F1AF
:100760008091E4008917F1F08FB7F8942093E900A5
:10077000EECF9091FC019093F1001092F100EDEF1B
:10078000F1E091919093F10092E0E330F907C9F71D
:100790009AE39093E800109205028FBF80E00895DD
:1007A0008FEF08958FEF08956093FC018093FD0112
:1007B000C1DF882329F41092FC011092FD01BACF09
:1007C00008951F920F920FB60F9211242F938F93BB
:1007D0009F93EF93FF938091E1001092E10083FFDC
:1007E0000FC01092E90091E09093EB001092EC00A2
:1007F00092E29093ED0098E09093F0001092040242
:1008000082FF34C080910402882381F12091F0019D
:10081000222361F1809106028F5F8093060290E0AF
:1008200083709070009711F583E08093E9008091C8
:10083000E80085FF1BC0809105028F5F8093050251
:100840008217A1F4109205028091FC018093F100BF
:100850001092F100EDEFF1E081918093F10082E0E0
:10086000E330F807C9F78AE38093E800FF91EF913E
:100870009F918F912F910F900FBE0F901F90189501
:100880001F920F920FB60F921124CF92DF92EF9228
:10089000FF920F931F932F933F934F935F936F9309
:1008A0007F938F939F93AF93BF93EF93FF93DF93C8
:1008B000CF930F92CDB7DEB71092E9008091E80098
:1008C00083FF39C12091F1003091F1008091F10056
:1008D000C82EDD244091F100942F80E0C82AD92A47
:1008E0000091F10010E04091F100942F80E0082B7E
:1008F000192B6091F100A091F10082EF8093E80044
:10090000363009F059C08BE790E09C01255030400B
:10091000FC013797459154914C155D05F9F4F901A7
:100920004591549140175107C9F42E5F3F4FF9018B
:10093000859194912E5F3F4FF9012491462F50E00D
:100940007A2F60E0462B572B4F3F510519F010F0DE
:100950004FEF50E0421750F4242F08C00796295F4C
:100960003F4FF0E08C3A9F0799F6E5C0AEEF40911B
:10097000E80050E0BA016570707061157105B9F357
:1009800042FDDCC0322F213208F030E2AC01632F8F
:1009900007C0FA014F5F5F4FE491E093F1006150AF
:1009A0006623B9F7830F911D231BA093E800222330
:1009B000F1F63032E1F2C2C0353049F48EEF809367
:1009C000E8009CDE8C2D80688093E300B7C039304E
:1009D00031F5222309F069C0C09204028EEF8093A2
:1009E000E80041E085EA90E04093E900FC010196CF
:1009F000E491E093EB00EE2369F09C012F5F3F4F01
:100A0000FC0184918093EC00C9010196F9012491C5
:100A10002093ED004F5F453039F78EE141C038300B
:100A200039F4203809F041C069DE8091040261C0C8
:100A30003323A9F4298362DE2981223851F40093FB
:100A4000E9009091EB0081E095FF80E01092E900D1
:100A500001C080E08093F1001092F10068C0313055
:100A600011F0333011F5223001F5C114D104E9F44D
:100A7000402F4F77842F81508430B8F48EEF8093CD
:100A8000E8004093E900333009F455C089E18093D0
:100A9000EB0081E090E002C0880F991F4A95E2F7D1
:100AA0008093EA001092EA0049C00115110509F08F
:100AB00042C0213A09F5313089F420DE8091FC01F1
:100AC0008093F1001092F100EDEFF1E081918093BD
:100AD000F10022E0E330F207C9F729C0323021F4F7
:100AE0000DDE8091F00105C0333029F507DE8091DD
:100AF000F1018093F1001BC02132E9F4393061F437
:100B00008091E80082FFFCCF8091F1008093030286
:100B10008BEF8093E8000BC03A3029F4D092F001BB
:100B20001092050204C03B3031F4C092F1018EEF07
:100B30008093E80003C081E28093EB000F90CF9197
:100B4000DF91FF91EF91BF91AF919F918F917F9135
:100B50006F915F914F913F912F911F910F91FF9056
:100B6000EF90DF90CF900F900FBE0F901F901895D1
:040B7000F894FFCF27
:100B74002982F22B35FE1D04141EF11B161A1F8444
:100B840006070820811909152182050A17222C114C
:100B94000B1C23FF100D1824C0360E0C2531370F03
:100BA400122630383313272EA0342F2D2982F22B0E
:100BB40035FE14090D1EF1381C061F841619182061
:100BC4008110040E21820C1308222C17151123FF07
:100BD4001B120A24C0050F0B253136071A2630379D
:100BE400331D272EA0342F2D0000002B46000000BB
:100BF400003A000000003B000000003C00008100BF
:100C04003D0000FE353E002A28003FFF4C504A407C
:100C1400904951524100004F4D4200004E4B434514
:100C2400000029443C01280028002800280028004E
:100C340080402010042900290029002900290029C6
:100C44000023002300230023002300230040200866
:100C5400040201804020100201FFFFFFFFFFFFFF9D
:020C64007D0110
:00000001FF
