:10000000A2C00000BBC00000B9C00000B7C0000023
:10001000B5C00000B3C00000B1C00000AFC0000018
:10002000ADC00000ABC00000A9C000009EC400002D
:10003000FBC40000A3C00000A1C000009FC00000DE
:100040009DC000009BC0000099C0000097C0000048
:1000500095C0000093C0000091C000008FC0000058
:100060008DC000008BC0000089C0000087C0000068
:1000700085C0000000010000AB001200020000BDBE
:10008000002200220000DF003F00210000CF000915
:10009000000300001E01040103090422010E0203F3
:1000A0000904320112000001C10600120100020021
:1000B000000020C0167C0400010102000109022298
:1000C00000010100C0320904000001030101000920
:1000D0002111010001223F000705830308000105EB
:1000E000010906A10175019508050719E029E71521
:1000F00000250181029501750881039505750105AB
:10010000081901290591029501750391039506755A
:1001100008150025680507190029688100C0040337
:1001200009040E03690062006E00540065006F0050
:100130000000120343006100740062006F00610060
:1001400072006400000011241FBECFEFD2E0DEBFBA
:10015000CDBF12E0A0E0B1E0ECE1FDE002C005900F
:100160000D92AE32B107D9F712E0AEE2B2E001C0B3
:100170001D92A238B107E1F77ED3CEC541CF809161
:100180002E02882391F088E080933B0210923C027B
:10019000A5D38FEF90E7A2E081509040A040E1F717
:1001A00000C000008CE268E011C084E080933B0254
:1001B00010923C0293D38FEF90E7A2E081509040E1
:1001C000A040E1F700C0000080E066E0C1C380E825
:1001D000809361001092610014B894EF97B91AB837
:1001E0008FEF85B998B98BB9549A5C9AE6E4F2E03E
:1001F000119282E0E238F807D9F759D35C986BD3B3
:100200008823E9F35C9A8FEF93EDA0E3815090404F
:10021000A040E1F700C000005C9808958C3318F509
:10022000282F30E0F901EA5BFD4F9081913041F4D5
:1002300026583E4FF90180811816B4F080E00895E9
:1002400040913C0150913D01F1E04A375F0731F0A8
:10025000923021F4225C3E4FF90103C0480F511D3A
:10026000FA018081089580E008950F931F93CF9342
:10027000DF93C5E2D2E00CE312E08991CFDFF80111
:1002800081938F01F2E0CB32DF07B9F780912F0223
:1002900080933B0223D3DF91CF911F910F9108955B
:1002A000DF93CF930F92CDB7DEB7282F30E0F9015F
:1002B000EA5BFD4F6081613021F4F901E658FE4FA1
:1002C00013C0E0913C01F0913D01E20FF31F9081DA
:1002D000653059F440913002509131024115510579
:1002E00021F0420F531FFA0190812A5B3D4FF90123
:1002F0001082913F98F09D3F31F4633021F080915E
:100300002F028B7F24C0915F923008F059C0643077
:1003100009F056C080912F028D7F19C097FF1BC036
:1003200080912E02882341F0913821F480912F0290
:10033000877F0DC0903911F0903821F480912F0201
:100340008F7705C09F77909580912F0289238093A6
:100350002F028BDF35C0E5E2F2E090E02191281713
:1003600059F09F5F9630D1F707C0E92FF0E0EB5DC1
:10037000FD4F218120839F5F9630B8F3898375DF1D
:10038000909132028981981759F410923602109296
:10039000350281E090E090933802809337020CC0E0
:1003A00010923402109233021092360210923502EB
:1003B000109238021092370210923A0210923902CB
:1003C0000F90CF91DF910895DF93CF930F92CDB728
:1003D000DEB7A0912F026A2F6D7D282F30E090911B
:1003E0006902992321F4662321F092E003C091E091
:1003F00001C09FEFF901EA5BFD4F9083913021F43A
:10040000F901E658FE4F06C0E0913C01F0913D0134
:10041000E80FF11D9081992329F5482F50E0E091D4
:100420003C01F0913D01E40FF51F9081662311F02E
:1004300062E001C06FEFF901EA5BFD4F6083992331
:1004400089F460913002709131026115710509F4EF
:10045000BEC0AA2309F0BBC0460F571FDA019C910A
:1004600045E04083913F08F4B0C09D3F31F5F9016C
:10047000EA5BFD4F8081813019F48BE264E064C057
:1004800080912F02982F9D7D21F4846080932F020C
:1004900002C083E0808380912F0280933B028BE235
:1004A00080933C021BD28FEF90E7A2E081509040F6
:1004B000A040E1F700C00000C0C09E3F41F5809120
:1004C000300290913102009749F090933D01809362
:1004D0003C0110923102109230020EC080913C011A
:1004E00090913D01909331028093300286EB91E030
:1004F00090933D0180933C018091300290913102B4
:100500000097D9F480912E028823C9F016C09C3F31
:10051000E9F42A5B3D4FD9018C91813091F490919F
:100520002E02911180E080932E02882331F4809175
:10053000300290913102009711F05C9A9BC05C9858
:1005400099C08CE260912F0203D294C0892F815F01
:10055000823008F08FC080912F02482F4D7D39F0F6
:100560002A5B3D4F94E0F9019083826064C0913F23
:1005700079F420913C0130913D018EE391E0281700
:10058000390709F477C041E02A373407C1F412C0B3
:10059000923F09F06FC020913C0130913D0181E014
:1005A0002030380709F466C080E091E0A1E02A37E6
:1005B0003A0729F4909331028093300204C090935B
:1005C0003D0180933C01DBDD55C097FD1EC090913D
:1005D000290290932A0290912802909329029091E7
:1005E00027029093280290912602909327029091DF
:1005F00025029093260280932502898336DE90910E
:1006000032028981981711F51AC080912E02882331
:1006100041F0913821F480912F0288600CC090390C
:1006200011F0903821F480912F02806804C09F77E8
:1006300080912F02892B80932F0217DE1BC081E04F
:1006400090E0909336028093350210C0809332027E
:1006500081E090E09093340280933302109236024E
:1006600010923502109238021092370210923A021C
:10067000109239020F90CF91DF9108958091390245
:1006800090913A02009719F1209137023091380287
:1006900036952795369527958217930710F401967E
:1006A00036C081E090E090933A02809339028091C5
:1006B0002F0280933B0280913202B0DD80933C0296
:1006C0000DD1882309F05CC010923C0207C18091D3
:1006D0003502909136020097F9F040913302509123
:1006E000340220916902222319F025E030E002C093
:1006F0002EE130E0240F351F8217930730F4019666
:100700009093360280933502089581E090E09093B3
:100710003A028093390208952091370230913802CD
:10072000809133029091340221153105D1F0C296A7
:100730002817390738F42F5F3F4F30933802209342
:100740003702089510923202109238021092370246
:100750001092340210923302109236021092350237
:100760000895009769F08A3F910530F401969093BF
:1007700034028093330208951092340210923302AF
:1007800008958F929F92AF92BF92CF92DF92EF9295
:10079000FF920F931F93CF93DF9302EF11E0CCEF03
:1007A000D1E09924D801ED91FC915E01988190955A
:1007B000808189238083B5E0BA95F1F7000061E07C
:1007C000E62E62E0F62E59E1C52E52E0D52E892C98
:1007D000D701ED91FD917D01D6018D916D01908143
:1007E0008923282D30E049F42A5B3D4FF9018081AF
:1007F000882359F4882DE8DD08C02A5B3D4FD901D4
:100800008C91882311F0882D4BDDB5E08B0EE9E14A
:10081000EE16E2E0FE06E1F6D801ED91FD918D01C4
:1008200021968081D5019C91892B80839394B92D49
:10083000B53009F0B7CF80913C0190913D01E1E0E6
:10084000863B9E0721F480916902882309F016DF18
:100850008FE19EE40197F1F700C00000DF91CF9196
:100860001F910F91FF90EF90DF90CF90BF90AF90CE
:100870009F908F90089584B7877F84BF88E10FB6DB
:10088000F89480936000109260000FBE90E080E8C2
:100890000FB6F89480936100909361000FBE97DCCF
:1008A00070DFFECF8091E80080FFFCCF089580EAE2
:1008B0008093D80086E089BD09B400FEFDCF80E8B2
:1008C0008093D8001092E000109243028CE0809355
:1008D000E200789408958091430208958091430244
:1008E000882391F18FB7F89493E09093E900909169
:1008F000E4009E5C23E03091E80035FD0EC08FBF20
:1009000080914302882301F18091E4008917F1F07E
:100910008FB7F8942093E900EECF90913B0290932B
:10092000F1001092F100ECE3F2E091919093F1006C
:1009300092E0E234F907C9F79AE39093E800109245
:1009400044028FBF80E008958FEF08958FEF0895E0
:1009500060933B0280933C02C1DF882329F410920C
:100960003B0210923C02BACF08951F920F920FB62D
:100970000F9211242F938F939F93EF93FF93809166
:10098000E1001092E10083FF0FC01092E90091E0B6
:100990009093EB001092EC0092E29093ED0098E0BF
:1009A0009093F0001092430282FF34C08091430282
:1009B000882381F120912C02222361F1809145024C
:1009C0008F5F8093450290E083709070009711F5DF
:1009D00083E08093E9008091E80085FF1BC080914F
:1009E00044028F5F809344028217A1F41092440264
:1009F00080913B028093F1001092F100ECE3F2E071
:100A000081918093F10082E0E234F807C9F78AE32C
:100A10008093E800FF91EF919F918F912F910F901C
:100A20000FBE0F901F9018951F920F920FB60F9246
:100A30001124CF92DF92EF92FF920F931F932F9387
:100A40003F934F935F936F937F938F939F93AF9356
:100A5000BF93EF93FF93DF93CF930F92CDB7DEB7A2
:100A60001092E9008091E80083FF39C12091F100E4
:100A70003091F1008091F100C82EDD244091F10009
:100A8000942F80E0C82AD92A0091F10010E040910B
:100A9000F100942F80E0082B192B6091F100A091B8
:100AA000F10082EF8093E800363009F059C08BE7FF
:100AB00090E09C0125503040FC01379745915491BE
:100AC0004C155D05F9F4F901459154914017510712
:100AD000C9F42E5F3F4FF901859194912E5F3F4FEE
:100AE000F9012491462F50E07A2F60E0462B572BD6
:100AF0004F3F510519F010F04FEF50E0421750F4FE
:100B0000242F08C00796295F3F4FF0E08C3A9F07DB
:100B100099F6E5C0AEEF4091E80050E0BA0165708B
:100B2000707061157105B9F342FDDCC0322F2132BE
:100B300008F030E2AC01632F07C0FA014F5F5F4F4E
:100B4000E491E093F10061506623B9F7830F911DA2
:100B5000231BA093E8002223F1F63032E1F2C2C059
:100B6000353049F48EEF8093E8009CDE8C2D806850
:100B70008093E300B7C0393031F5222309F069C012
:100B8000C09243028EEF8093E80041E085EA90E056
:100B90004093E900FC010196E491E093EB00EE2321
:100BA00069F09C012F5F3F4FFC0184918093EC0022
:100BB000C9010196F90124912093ED004F5F453062
:100BC00039F78EE141C0383039F4203809F041C09E
:100BD00069DE8091430261C03323A9F4298362DE78
:100BE0002981223851F40093E9009091EB0081E0D3
:100BF00095FF80E01092E90001C080E08093F10051
:100C00001092F10068C0313011F0333011F522300C
:100C100001F5C114D104E9F4402F4F77842F81509E
:100C20008430B8F48EEF8093E8004093E9003330CD
:100C300009F455C089E18093EB0081E090E002C0A7
:100C4000880F991F4A95E2F78093EA001092EA0014
:100C500049C00115110509F042C0213A09F53130AA
:100C600089F420DE80913B028093F1001092F10024
:100C7000ECE3F2E081918093F10022E0E234F207AC
:100C8000C9F729C0323021F40DDE80912C0205C055
:100C9000333029F507DE80912D028093F1001BC0CF
:100CA0002132E9F4393061F48091E80082FFFCCF11
:100CB0008091F100809342028BEF8093E8000BC09B
:100CC0003A3029F4D0922C021092440204C03B30F6
:100CD00031F4C0922D028EEF8093E80003C081E2D0
:100CE0008093EB000F90CF91DF91FF91EF91BF9137
:100CF000AF919F918F917F916F915F914F913F91B4
:100D00002F911F910F91FF90EF90DF90CF900F9058
:0C0D10000FBE0F901F901895F894FFCFB5
:100D1C0029F1312B35FD14090D1E2A381C061F84B0
:100D2C00161918208110040E21820C1308222C177E
:100D3C00151123FF1B120A24C0050F0B252836079B
:100D4C001A263037331D272EF2342F2D000129F1AE
:100D5C00312B35FD1D04141E2A1B161A1F84060781
:100D6C000820811909152182050A17222C110B1C48
:100D7C0023FF100D1824C0360E0C2528370F122611
:100D8C0030383313272EF2342F2D2982002B46FDB9
:100D9C000000003A2A0000003B840000003C810067
:100DAC0000003D820000353EFC2A28283FFF4C50B5
:100DBC004A40FE4951524128004F4D4247004E4B8C
:100DCC004345A04829442982282B35FD004E4B1E53
:100DDC002A00504A1F840051522081004F4D212C73
:100DEC00002835222C62555423FF595C5F24C05ACD
:100DFC005D6025285B5E612653635756272EA0281D
:100E0C00292D2800280028002800280080402010C8
:100E1C000429002900290029002900290023002386
:100E2C00002300230023002300402008040201803B
:0E0E3C004020100201FFFFFFFFFFFFFF7D01BE
:00000001FF
