:10000000A2C00000BBC00000B9C00000B7C0000023
:10001000B5C00000B3C00000B1C00000AFC0000018
:10002000ADC00000ABC00000A9C00000AFC400001C
:100030000CC50000A3C00000A1C000009FC00000CC
:100040009DC000009BC0000099C0000097C0000048
:1000500095C0000093C0000091C000008FC0000058
:100060008DC000008BC0000089C0000087C0000068
:1000700085C0000000010000AB001200020000BDBE
:10008000002200220000DF003F00210000CF000915
:10009000000300001E01040103090422010E0203F3
:1000A0000904320112000001C10600120100020021
:1000B000000020C0167C0400010102000109022298
:1000C00000010100C0320904000001030101000920
:1000D0002111010001223F000705830308000105EB
:1000E000010906A10175019508050719E029E71521
:1000F00000250181029501750881039505750105AB
:10010000081901290591029501750391039506755A
:1001100008150025680507190029688100C0040337
:1001200009040E03690062006E00540065006F0050
:100130000000120343006100740062006F00610060
:1001400072006400000011241FBECFEFD2E0DEBFBA
:10015000CDBF12E0A0E0B1E0EEE3FDE002C005900B
:100160000D92A033B107D9F712E0A0E3B2E001C0CD
:100170001D92A438B107E1F78FD3DFC541CF80913D
:100180003002882391F088E080933D0210923E0275
:10019000B6D38FEF90E7A2E081509040A040E1F706
:1001A00000C000008CE268E011C084E080933D0252
:1001B00010923E02A4D38FEF90E7A2E081509040CE
:1001C000A040E1F700C0000080E066E0D2C380E814
:1001D000809361001092610014B894EF97B91AB837
:1001E0008FEF85B998B98BB9549A5C9AE8E4F2E03C
:1001F000119282E0E438F807D9F76AD35C987CD38F
:100200008823E9F35C9A8FEF93EDA0E3815090404F
:10021000A040E1F700C000005C9808958C3318F509
:10022000282F30E0F901E85BFD4F9081913041F4D7
:1002300026583E4FF90180811816B4F080E00895E9
:1002400040913C0150913D01F1E04A375F0731F0A8
:10025000923021F4225C3E4FF90103C0480F511D3A
:10026000FA018081089580E008950F931F93CF9342
:10027000DF93C5E2D2E00EE312E08991CFDFF8010F
:1002800081938F01F2E0CB32DF07B9F78091310221
:1002900080933D0234D3DF91CF911F910F91089548
:1002A000DF93CF930F92CDB7DEB7282F30E0F9015F
:1002B000E85BFD4F6081613021F4F901E658FE4FA3
:1002C00013C0E0913C01F0913D01E20FF31F9081DA
:1002D000653059F440913202509133024115510575
:1002E00021F0420F531FFA019081285B3D4FF90125
:1002F0001082913F98F09D3F31F4633021F080915E
:1003000031028B7F24C0915F923008F059C0643075
:1003100009F056C0809131028D7F19C097FF1BC034
:1003200080913002882341F0913821F4809131028C
:10033000877F0DC0903911F0903821F480913102FF
:100340008F7705C09F7790958091310289238093A4
:1003500031028BDF35C0E5E2F2E090E02191281711
:1003600059F09F5F9630D1F707C0E92FF0E0EB5DC1
:10037000FD4F218120839F5F9630B8F3898375DF1D
:10038000909134028981981759F410923802109292
:10039000370281E090E090933A02809339020CC0DA
:1003A00010923602109235021092380210923702E3
:1003B00010923A021092390210923C0210923B02C3
:1003C0000F90CF91DF910895DF93CF930F92CDB728
:1003D000DEB7A09131026A2F6D7D282F30E0909119
:1003E0006B02992321F4662321F092E003C091E08F
:1003F00001C09FEFF901E85BFD4F9083913021F43C
:10040000F901E658FE4F06C0E0913C01F0913D0134
:10041000E80FF11D9081992329F5482F50E0E091D4
:100420003C01F0913D01E40FF51F9081662311F02E
:1004300062E001C06FEFF901E85BFD4F6083992333
:1004400089F460913202709133026115710509F4EB
:10045000E6C0AA2309F0E3C0460F571FDA019C91BA
:1004600045E04083913F08F4BEC09D3F31F5F9015E
:10047000E85BFD4F8081813019F48BE264E069C054
:1004800080913102982F9D7D21F484608093310208
:1004900002C083E080838091310280933D028BE231
:1004A00080933E022CD28FEF90E7A2E081509040E3
:1004B000A040E1F700C00000B0C09E3F41F5809130
:1004C000320290913302009749F090933D0180935E
:1004D0003C0110923302109232020EC080913C0116
:1004E00090913D01909333028093320286EB91E02C
:1004F00090933D0180933C018091320290913302B0
:10050000009701F5809130028823F1F01BC09C3FD9
:1005100011F5285B3D4FD9018C918130B9F4809160
:100520003102827299F081E090913002911180E065
:1005300080933002882331F480913202909133020B
:10054000009711F05C9AAEC05C98ACC08CE26091F0
:1005500031020FD2A7C0892F815F8230C8F5809108
:100560003102482F4D7D39F0285B3D4F94E0F90171
:100570009083826050C0913F79F420913C0130918A
:100580003D018EE391E02817390709F48BC041E063
:100590002A373407B9F411C0923FD1F420913C01BD
:1005A00030913D0181E02030380709F47BC080E0C4
:1005B00091E0A1E02A373A0729F49093330280931F
:1005C000320204C090933D0180933C01D8DD6AC0A3
:1005D0009B3F09F067C081E090912C02911180E06F
:1005E00080932C025FC097FF1AC08091300288234D
:1005F00041F0913821F48091310288600CC090392B
:1006000011F0903821F480913102806804C09F7706
:1006100080913102892B8093310227DE43C0909173
:100620003402981739F42091390230913A022A3075
:100630003105C8F09091290290932A0290912802E6
:10064000909329029091270290932802909126027C
:100650009093270290912502909326028093250281
:10066000898303DE898190913402981739F481E0FF
:1006700090E0909338028093370210C08093340248
:1006800081E090E090933602809335021092380218
:100690001092370210923A021092390210923C02E4
:1006A00010923B020F90CF91DF91089580913B0211
:1006B00090913C02009741F12091390230913A0229
:1006C00036952795369527958217930710F401964E
:1006D0003BC081E090E090933C0280933B0280918C
:1006E0002C02882309F469C08091310280933D0275
:1006F0008091340293DD80933E0201D1882309F07A
:100700005CC010923E02FBC080913702909138028B
:100710000097F9F0409135025091360220916B021A
:10072000222319F025E030E002C02EE130E0240F52
:10073000351F8217930730F4019690933802809307
:100740003702089581E090E090933C0280933B0251
:1007500008952091390230913A02809135029091AA
:10076000360221153105D1F0C2962817390738F421
:100770002F5F3F4F30933A02209339020895109231
:10078000340210923A0210923902109236021092FC
:10079000350210923802109237020895009769F0DE
:1007A0008A3F910530F4019690933602809335028A
:1007B0000895109236021092350208958F929F92FA
:1007C000AF92BF92CF92DF92EF92FF920F931F935F
:1007D000CF93DF9302EF11E0CCEFD1E09924D80161
:1007E000ED91FC915E0198819095808189238083B1
:1007F000B5E0BA95F1F7000061E0E62E62E0F62E72
:1008000059E1C52E52E0D52E892CD701ED91FD91ED
:100810007D01D6018D916D0190818923282D30E0D5
:1008200049F4285B3D4FF9018081882359F4882DD4
:10083000CBDD08C0285B3D4FD9018C91882311F096
:10084000882D2EDDB5E08B0EE9E1EE16E2E0FE0626
:10085000E1F6D801ED91FD918D0121968081D501C0
:100860009C91892B80839394B92DB53009F0B7CF33
:100870001DDFEFE1FEE43197F1F700C00000DF91EA
:10088000CF911F910F91FF90EF90DF90CF90BF908D
:10089000AF909F908F90089584B7877F84BF88E141
:1008A0000FB6F89480936000109260000FBE90E045
:1008B00080E80FB6F89480936100909361000FBEBA
:1008C00086DC7CDFFECF8091E80080FFFCCF0895BE
:1008D00080EA8093D80086E089BD09B400FEFDCF90
:1008E00080E88093D8001092E000109245028CE0DE
:1008F0008093E20078940895809145020895809154
:100900004502882391F18FB7F89493E09093E90022
:100910009091E4009E5C23E03091E80035FD0EC02C
:100920008FBF80914502882301F18091E4008917EF
:10093000F1F08FB7F8942093E900EECF90913D024B
:100940009093F1001092F100EEE3F2E09191909318
:10095000F10092E0E434F907C9F79AE39093E800D4
:10096000109246028FBF80E008958FEF08958FEFB9
:10097000089560933D0280933E02C1DF882329F4ED
:1009800010923D0210923E02BACF08951F920F922C
:100990000FB60F9211242F938F939F93EF93FF9392
:1009A0008091E1001092E10083FF0FC01092E900F6
:1009B00091E09093EB001092EC0092E29093ED00A6
:1009C00098E09093F0001092450282FF34C080912D
:1009D0004502882381F120912D02222361F180912B
:1009E00047028F5F8093470290E08370907000977A
:1009F00011F583E08093E9008091E80085FF1BC03A
:100A0000809146028F5F809346028217A1F4109274
:100A1000460280913D028093F1001092F100EEE3D6
:100A2000F2E081918093F10082E0E434F807C9F7A5
:100A30008AE38093E800FF91EF919F918F912F912E
:100A40000F900FBE0F901F9018951F920F920FB628
:100A50000F921124CF92DF92EF92FF920F931F9388
:100A60002F933F934F935F936F937F938F939F93B6
:100A7000AF93BF93EF93FF93DF93CF930F92CDB7D5
:100A8000DEB71092E9008091E80083FF39C1209120
:100A9000F1003091F1008091F100C82EDD244091E9
:100AA000F100942F80E0C82AD92A0091F10010E0CB
:100AB0004091F100942F80E0082B192B6091F100F8
:100AC000A091F10082EF8093E800363009F059C020
:100AD0008BE790E09C0125503040FC013797459111
:100AE00054914C155D05F9F4F90145915491401765
:100AF0005107C9F42E5F3F4FF901859194912E5F04
:100B00003F4FF9012491462F50E07A2F60E0462BA9
:100B1000572B4F3F510519F010F04FEF50E042179F
:100B200050F4242F08C00796295F3F4FF0E08C3A1D
:100B30009F0799F6E5C0AEEF4091E80050E0BA019A
:100B40006570707061157105B9F342FDDCC0322F1C
:100B5000213208F030E2AC01632F07C0FA014F5F89
:100B60005F4FE491E093F10061506623B9F7830F82
:100B7000911D231BA093E8002223F1F63032E1F20D
:100B8000C2C0353049F48EEF8093E8009CDE8C2D96
:100B900080688093E300B7C0393031F5222309F033
:100BA00069C0C09245028EEF8093E80041E085EA7B
:100BB00090E04093E900FC010196E491E093EB00A2
:100BC000EE2369F09C012F5F3F4FFC0184918093DD
:100BD000EC00C9010196F90124912093ED004F5FCB
:100BE000453039F78EE141C0383039F4203809F00A
:100BF00041C069DE8091450261C03323A9F4298395
:100C000062DE2981223851F40093E9009091EB00D3
:100C100081E095FF80E01092E90001C080E08093C0
:100C2000F1001092F10068C0313011F0333011F54D
:100C3000223001F5C114D104E9F4402F4F77842FFD
:100C400081508430B8F48EEF8093E8004093E9003F
:100C5000333009F455C089E18093EB0081E090E0E6
:100C600002C0880F991F4A95E2F78093EA0010921C
:100C7000EA0049C00115110509F042C0213A09F501
:100C8000313089F420DE80913D028093F100109292
:100C9000F100EEE3F2E081918093F10022E0E43490
:100CA000F207C9F729C0323021F40DDE80912D0200
:100CB00005C0333029F507DE80912E028093F100C4
:100CC0001BC02132E9F4393061F48091E80082FFE1
:100CD000FCCF8091F100809344028BEF8093E80079
:100CE0000BC03A3029F4D0922D021092460204C073
:100CF0003B3031F4C0922E028EEF8093E80003C0A7
:100D000081E28093EB000F90CF91DF91FF91EF9103
:100D1000BF91AF919F918F917F916F915F914F9113
:100D20003F912F911F910F91FF90EF90DF90CF9007
:0E0D30000F900FBE0F901F901895F894FFCFF4
:100D3E0029F1902B35FD14090D1E84381C061F84D5
:100D4E00161918208110040E21820C1308222C175C
:100D5E00151123FF1B120A24C0050F0B2531360770
:100D6E001A263037331D272EF2342F2D000129F18C
:100D7E00902B35FD1D04141E841B161A1F840607A6
:100D8E000820811909152182050A17222C110B1C26
:100D9E0023FF100D1824C0360E0C2531370F1226E6
:100DAE0030383313272EF2342F2DFB82902B46FD35
:100DBE000000003A840000003B840000003C8100EB
:100DCE0000003D820000353EFC2A28283FFF4C5093
:100DDE004A40FE4951524100004F4D4247004E4B92
:100DEE004345A04829442982902B35FD004E4B1EC9
:100DFE008400504A1F840051522081004F4D212CF7
:100E0E00002835222C62555423FF595C5F24C05AAA
:100E1E005D6025285B5E612653635756272EA028FA
:100E2E00292D2800280028002800280080402010A6
:100E3E000429002900290029002900290023002364
:100E4E000023002300230023004020080402018019
:100E5E004020100201FFFFFFFFFFFFFF017D010099
:00000001FF
