:10000000A2C00000BBC00000B9C00000B7C0000023
:10001000B5C00000B3C00000B1C00000AFC0000018
:10002000ADC00000ABC00000A9C0000038C4000093
:1000300095C40000A3C00000A1C000009FC0000044
:100040009DC000009BC0000099C0000097C0000048
:1000500095C0000093C0000091C000008FC0000058
:100060008DC000008BC0000089C0000087C0000068
:1000700085C0000000010000AB001200020000BDBE
:10008000002200220000DF003F00210000CF000915
:10009000000300001E01040103090422010E0203F3
:1000A0000904320112000001C10600120100020021
:1000B000000020C0167C0400010102000109022298
:1000C00000010100C0320904000001030101000920
:1000D0002111010001223F000705830308000105EB
:1000E000010906A10175019508050719E029E71521
:1000F00000250181029501750881039505750105AB
:10010000081901290591029501750391039506755A
:1001100008150025680507190029688100C0040337
:1001200009040E03690062006E00540065006F0050
:100130000000120343006100740062006F00610060
:1001400072006400000011241FBECFEFD2E0DEBFBA
:10015000CDBF11E0A0E0B1E0E0E5FCE002C0059019
:100160000D92A23FB107D9F712E0A2EFB1E001C0B2
:100170001D92A534B107E1F718D368C541CF80E0DF
:1001800064E080D38FEF90E7A2E081509040A040E0
:10019000E1F700C0000080E066E074D38FEF90E7E5
:1001A000A2E081509040A040E1F700C0000080E054
:1001B00060E068C380E8809361001092610014B829
:1001C00094EF97B91AB88FEF85B998B98BB9549A4B
:1001D0005C9AE9E0F2E0119282E0E534F807D9F7A1
:1001E00000D35C9812D38823E9F35C9A8FEF93EDE8
:1001F000A0E381509040A040E1F700C000005C986F
:1002000008958C3328F5282F30E0F901E75FFD4F82
:100210009081913041F428583E4FF90180811816A1
:10022000C4F080E008954091B4015091B501F1E02F
:1002300048375F0741F09091F201957521F0205009
:100240003F4FF90103C0480F511DFA018081089505
:1002500080E008950F931F93CF93DF93C9EED1E011
:100260000FEF11E08991CDDFF80181938F01F1E06B
:10027000CF3EDF07B9F78091F2018093FE01C8D22B
:10028000DF91CF911F910F910895DF93CF930F923C
:10029000CDB7DEB7282F30E0F901E75FFD4F908141
:1002A0001082913081F4F901E858FE4F408147FFF8
:1002B00002C0942F3AC04091B4015091B50161E061
:1002C0004837560709F5E091B401F091B501E80F00
:1002D000F11D4081413F50F04D3F09F066C0923022
:1002E00009F463C08091F2018B7F24C0923051F4F5
:1002F00028583E4FF9019081913871F48091F201B4
:100300008D7F18C0913041F42091B4013091B50136
:10031000F1E028373F0791F4E091B401F091B50185
:10032000E80FF11D908197FF09C09F77909580910C
:10033000F20189238093F2018DDF37C090E0E92F2D
:10034000F0E0E751FE4F2081281759F09F5F96306B
:10035000B1F707C0E92FF0E0E751FE4F218120837C
:100360009F5F9630B8F3898375DF9091F50189819D
:10037000981759F41092F9011092F80181E090E079
:100380009093FB018093FA010CC01092F701109238
:10039000F6011092F9011092F8011092FB011092EF
:1003A000FA011092FD011092FC010F90CF91DF91A4
:1003B0000895DF93CF930F92CDB7DEB7482F50E06B
:1003C00090912C02992311F091E001C09FEFFA0166
:1003D000E75FFD4F908360912C026623B9F1DA014B
:1003E000A858BE4F9C9197FF28C0913FC8F09D3FF1
:1003F00021F48BE264E046D2E4C09E3F09F0E1C004
:100400008091F3019091F401009709F070C0809100
:10041000B4019091B5019093F4018093F30175C0FC
:10042000913809F0ABC08091F20180FFA7C022E0B3
:10043000208382608093F201A1C02091B4013091A9
:10044000B50191E02837390709F069C02091B4015E
:100450003091B501F901E80FF11D9081913F08F449
:100460005CC0913F39F4A1E020303A0799F180E077
:1004700091E008C0923F61F4B1E02C333B0751F1A9
:100480008CE391E09093B5018093B40178DE99C03C
:100490009D3F01F58091F201982F947421F48460BE
:1004A0008093F20105C0475F5D4F82E0FA018083CF
:1004B0008091F2018093FE018BE28093FF01A8D12D
:1004C0008FEF90E7A2E081509040A040E1F700C09C
:1004D00000005AC048585E4FDA018C918E3F09F0F7
:1004E00070C08091F3019091F401009751F09093C6
:1004F000B5018093B4011092F4011092F3015C985D
:1005000060C03093F4012093F30188E791E0909369
:10051000B5018093B4015C9A54C0662341F02091E8
:10052000B4013091B501B1E028373B0749F4E091BF
:10053000B401F091B501E80FF11D908197FD1EC047
:100540009091ED019093EE019091EC019093ED016B
:100550009091EB019093EC019091EA019093EB0163
:100560009091E9019093EA018093E901898372DE19
:100570009091F5018981981781F408C09F77809147
:10058000F201892B8093F20165DE1BC081E090E0CF
:100590009093F9018093F80110C08093F50181E0F8
:1005A00090E09093F7018093F6011092F901109278
:1005B000F8011092FB011092FA011092FD011092C5
:1005C000FC010F90CF91DF9108958F929F92AF928F
:1005D000BF92CF92DF92EF92FF920F931F93CF9330
:1005E000DF9306EB11E0C0ECD1E09924D801ED9146
:1005F000FC915E0198819095808189238083B5E08C
:10060000BA95F1F7000065ECE62E61E0F62E5DED9F
:10061000C52E51E0D52E892CD701ED91FD917D019C
:10062000D6018D916D0190818923282D30E049F408
:10063000275F3D4FF9018081882359F4882DB9DE69
:1006400008C0275F3D4FD9018C91882311F0882D78
:100650001CDEB5E08B0EEDEDEE16E1E0FE06E1F6F8
:10066000D801ED91FD918D0121968081D5019C915C
:10067000892B80839394B92DB53009F0B7CFEFE182
:10068000FEE43197F1F700C000008091FC019091E9
:10069000FD01009721F12091FA013091FB0136957F
:1006A0002795369527958217930710F4019637C042
:1006B00081E090E09093FD018093FC018091F20134
:1006C0008093FE018091F5019CDD8093FF01A0D015
:1006D000882309F05DC01092FF019AD059C0809123
:1006E000F8019091F9010097F9F04091F6015091CD
:1006F000F70120912C02222319F025E030E002C0FE
:100700002EE130E0240F351F8217930730F4019655
:100710009093F9018093F8013BC081E090E09093C1
:10072000FD018093FC0134C02091FA013091FB015E
:100730008091F6019091F70121153105D1F0C29613
:100740002817390738F42F5F3F4F3093FB01209370
:10075000FA011EC01092F5011092FB011092FA01ED
:100760001092F7011092F6011092F9011092F8011F
:100770000FC0009769F08233910530F40196909391
:10078000F7018093F60104C01092F7011092F60170
:10079000DF91CF911F910F91FF90EF90DF90CF905D
:1007A000BF90AF909F908F90089584B7877F84BF4C
:1007B00088E10FB6F89480936000109260000FBE3D
:1007C00090E080E80FB6F894809361009093610008
:1007D0000FBEF0DCFADEFECF8091E80080FFFCCF98
:1007E000089580EA8093D80086E089BD09B400FEB0
:1007F000FDCF80E88093D8001092E00010920602AE
:100800008CE08093E2007894089580910602089528
:1008100080910602882391F18FB7F89493E090932A
:10082000E9009091E4009E5C23E03091E80035FD02
:100830000EC08FBF80910602882301F18091E400F1
:100840008917F1F08FB7F8942093E900EECF9091DB
:10085000FE019093F1001092F100EFEFF1E0919121
:100860009093F10092E0E530F907C9F79AE390938D
:10087000E800109207028FBF80E008958FEF08957F
:100880008FEF08956093FE018093FF01C1DF8823FD
:1008900029F41092FE011092FF01BACF08951F9221
:1008A0000F920FB60F9211242F938F939F93EF9374
:1008B000FF938091E1001092E10083FF0FC010923E
:1008C000E90091E09093EB001092EC0092E290939B
:1008D000ED0098E09093F0001092060282FF34C081
:1008E00080910602882381F12091F001222361F199
:1008F000809108028F5F8093080290E0837090706F
:10090000009711F583E08093E9008091E80085FF6E
:100910001BC0809107028F5F809307028217A1F4AA
:10092000109207028091FE018093F1001092F10075
:10093000EFEFF1E081918093F10082E0E530F8077C
:10094000C9F78AE38093E800FF91EF919F918F911F
:100950002F910F900FBE0F901F9018951F920F921E
:100960000FB60F921124CF92DF92EF92FF920F9366
:100970001F932F933F934F935F936F937F938F9327
:100980009F93AF93BF93EF93FF93DF93CF930F9218
:10099000CDB7DEB71092E9008091E80083FF39C13E
:1009A0002091F1003091F1008091F100C82EDD24FA
:1009B0004091F100942F80E0C82AD92A0091F100DB
:1009C00010E04091F100942F80E0082B192B6091EA
:1009D000F100A091F10082EF8093E800363009F039
:1009E00059C08BE790E09C0125503040FC013797BF
:1009F000459154914C155D05F9F4F90145915491D7
:100A000040175107C9F42E5F3F4FF901859194912A
:100A10002E5F3F4FF9012491462F50E07A2F60E07E
:100A2000462B572B4F3F510519F010F04FEF50E078
:100A3000421750F4242F08C00796295F3F4FF0E07B
:100A40008C3A9F0799F6E5C0AEEF4091E80050E080
:100A5000BA016570707061157105B9F342FDDCC0B3
:100A6000322F213208F030E2AC01632F07C0FA01C7
:100A70004F5F5F4FE491E093F10061506623B9F757
:100A8000830F911D231BA093E8002223F1F630323F
:100A9000E1F2C2C0353049F48EEF8093E8009CDE6D
:100AA0008C2D80688093E300B7C0393031F5222364
:100AB00009F069C0C09206028EEF8093E80041E021
:100AC00085EA90E04093E900FC010196E491E0930F
:100AD000EB00EE2369F09C012F5F3F4FFC018491F6
:100AE0008093EC00C9010196F90124912093ED0057
:100AF0004F5F453039F78EE141C0383039F4203846
:100B000009F041C069DE8091060261C03323A9F477
:100B1000298362DE2981223851F40093E900909103
:100B2000EB0081E095FF80E01092E90001C080E0D9
:100B30008093F1001092F10068C0313011F0333031
:100B400011F5223001F5C114D104E9F4402F4F779B
:100B5000842F81508430B8F48EEF8093E800409366
:100B6000E900333009F455C089E18093EB0081E05E
:100B700090E002C0880F991F4A95E2F78093EA003F
:100B80001092EA0049C00115110509F042C0213A4E
:100B900009F5313089F420DE8091FE018093F10067
:100BA0001092F100EFEFF1E081918093F10022E0EB
:100BB000E530F207C9F729C0323021F40DDE80910B
:100BC000F00105C0333029F507DE8091F1018093F3
:100BD000F1001BC02132E9F4393061F48091E80062
:100BE00082FFFCCF8091F100809305028BEF809310
:100BF000E8000BC03A3029F4D092F00110920702BD
:100C000004C03B3031F4C092F1018EEF8093E800D4
:100C100003C081E28093EB000F90CF91DF91FF91B1
:100C2000EF91BF91AF919F918F917F916F915F9164
:100C30004F913F912F911F910F91FF90EF90DF9077
:100C4000CF900F900FBE0F901F901895F894FFCF84
:100C50002982F22B35FD1D04141EF11B161A1F8468
:100C600006070820811909152182050A17222C116F
:100C70000B1C23FF100D1824C0360E0C2531370F26
:100C8000122630383313272EA0342F2D2982F22B31
:100C900035FD14090D1EF1381C061F841619182085
:100CA0008110040E21820C1308222C17151123FF2A
:100CB0001B120A24C0050F0B253136071A263037C0
:100CC000331D272EA0342F2D2982002B4653625529
:100CD000543A00595C5F3B845A5D603C815B5E61C5
:100CE0003D826357563E2C2A28FD3FFF4C504A4018
:100CF000FE4951524100004F4D4200004E4B4345CA
:100D0000A00029443C0128002800280028002800D1
:100D100080402010042900290029002900290029E9
:100D20000023002300230023002300230040200889
:100D3000040201804020100201FFFFFFFFFFFFFFC0
:020D40007D0133
:00000001FF
