:10000000A2C00000BBC00000B9C00000B7C0000023
:10001000B5C00000B3C00000B1C00000AFC0000018
:10002000ADC00000ABC00000A9C0000066C5000064
:10003000C3C50000A3C00000A1C000009FC0000015
:100040009DC000009BC0000099C0000097C0000048
:1000500095C0000093C0000091C000008FC0000058
:100060008DC000008BC0000089C0000087C0000068
:1000700085C0000000010000AB001200020000BDBE
:10008000002200220000DF003F00210000CF000915
:10009000000300001E01040103090422010E0203F3
:1000A0000904320112000001C10600120100020021
:1000B000000020C0167C0400010102000109022298
:1000C00000010100C0320904000001030101000920
:1000D0002111010001223F000705830308000105EB
:1000E000010906A10175019508050719E029E71521
:1000F00000250181029501750881039505750105AB
:10010000081901290591029501750391039506755A
:1001100008150025680507190029688100C0040337
:1001200009040E03690062006E00540065006F0050
:100130000000120343006100740062006F00610060
:1001400072006400000011241FBECFEFD2E0DEBFBA
:10015000CDBF12E0A0E0B1E0E2E3FFE002C0059015
:100160000D92A835B107D9F712E0A8E5B2E001C0B9
:100170001D92AC3AB107E1F746D4D9C641CF8AE423
:1001800084B980E287B984E08AB98FEF85B988B9EC
:100190008BB9089580E88093610010926100EFDFD1
:1001A000569A3E9A519A469A599880910101811126
:1001B0005E98E0E7F2E0119282E0EC3AF807D9F7B6
:1001C0003ED451D48823E9F35E9A809101018111D4
:1001D0004698089580916402882391F088E0809386
:1001E00065021092660242D42FEF80E792E0215020
:1001F00080409040E1F700C0000068E08CE211C050
:1002000084E0809365021092660230D42FEF80E77D
:1002100092E0215080409040E1F700C0000066E08D
:1002200080E05EC48C3310F5282F30E0F901E059EE
:10023000FD4F9081913039F4F901EF58FE4F8081E4
:100240001816ACF013C040910A0150910B0161E007
:100250004137560731F0923021F4F901E355FE4F52
:1002600003C0FA01E80FF11D8081089580E0089530
:100270000F931F93CF93DF93C3E0D1E006E612E024
:100280008991D0DFF80181938F01F1E0C930DF0758
:10029000B9F78091630280936502DF91CF911F913E
:1002A0000F91E4C3CF93DF93D82F282F30E0F901CB
:1002B000E059FD4FC081C13021F4F901EF58FE4FE4
:1002C00013C0E0910A01F0910B01E20FF31F90813E
:1002D000C63059F4409161025091620241155105B6
:1002E00021F0FA01E20FF31F9081F901E059FD4F6F
:1002F0001082809160028111F8C0913F08F4A4C07F
:100300009D3F39F4C33009F4F0C0809163028B7FC4
:10031000B4C0913F09F03DC080916302C53011F433
:100320008E7FABC08D7F80936302A2DF809100013E
:100330008D1386C080915E0290915F02009709F450
:100340007FC0C29708F07CC0C43009F479C08091A6
:100350000A0190910B0121E08D3A920709F470C0D7
:100360008157914039F48DEA91E090936202809335
:10037000610206C08DEA91E090930B0180930A011F
:1003800029DF469A80910101882309F459C0599ABE
:1003900057C0923FB9F5809163028F7D80936302CD
:1003A00067DF809100018D134BC080915E029091B8
:1003B0005F02009709F444C0C29708F041C0C430FE
:1003C00009F43EC080910A0190910B0122E08C312A
:1003D0009207B1F18157914039F48CE192E090930A
:1003E00062028093610206C08CE192E090930B015F
:1003F00080930A01EFDE599880910101882301F171
:1004000046981EC0933F09F070C0809163028D7FB3
:10041000809363022DDF809100018D1311C08091C4
:100420005E0290915F02009759F0C29748F4C23083
:1004300039F080916302811103C060E08CE250D3F7
:100440008FEF8093000141C097FF1CC08091640230
:10045000882341F0913821F480916302877F0DC099
:10046000903911F0903821F4809163028F7705C0A4
:100470009F77909580916302892380936302DF9137
:10048000CF91F6CEE3E0F1E090E081918D1759F045
:100490009F5F9630D1F707C0E92FF0E0ED5FFE4F88
:1004A000818180839F5F9630B9F7E2DE8091000101
:1004B0008D130BC010925D0210925C0281E090E0FF
:1004C00090935B0280935A020CC010925F021092CC
:1004D0005E0210925D0210925C0210925B0210921A
:1004E0005A021092590210925802DF91CF9108954A
:1004F0001F93CF93DF9300D000D0CDB7DEB7182F76
:1005000060916302962F9D7D282F30E080919702A5
:10051000811104C0992321F082E003C081E001C071
:100520008FEFF901E059FD4F8083813021F4F9010B
:10053000EF58FE4F06C0E0910A01F0910B01E10F68
:10054000F11D8081811121C0412F50E0E0910A010D
:10055000F0910B01E40FF51F8081992311F092E0D7
:1005600001C09FEFF901E059FD4F908381110DC04B
:10057000A0916102B0916202109739F0611105C03B
:10058000A40FB51F8C9196E09083909160029923FF
:1005900021F08A3F09F042C195C0813F08F4DBC0D9
:1005A0008D3F19F5F901E059FD4F8081813019F433
:1005B00064E08BE259C0611104C084E0809363025F
:1005C00002C083E0808380916302809365028BE2A6
:1005D000809366024BD22FEF80E792E0215080405B
:1005E0009040E1F700C00000F9C08E3F49F5F901E5
:1005F000E059FD4F8081813009F0F1C0627209F449
:10060000EEC020916102309162022115310549F05E
:1006100030930B0120930A01109262021092610242
:10062000DEC080910A0190910B0190936202809349
:10063000610225E331E030930B0120930A01CFC022
:100640008C3FA1F4F901E059FD4F8081813059F4CC
:10065000862F827241F081E090916402911180E0D6
:1006600080936402BCC08CE23BD2B9C0813F91F45C
:10067000862F827239F0F901E059FD4F85E08083C1
:10068000616078C06623B1F0F901E059FD4F84E064
:10069000808310C0823F11F460626CC08B3F41F4D4
:1006A00081E090910201911180E08093020197C056
:1006B000833F11F462605EC0843F09F490C08A3FBA
:1006C00091F408C01092600280910101882309F41E
:1006D00086C01CC081E0809360025E9A469A599859
:1006E00068E08FE0C1CF893F09F079C0627209F4F8
:1006F00076C080910101882331F0109201015E9A49
:10070000469A59986CC081E08093010140910A019A
:1007100050910B01209161023091620281E04D3ACB
:10072000580721F091E02D3A390709F4599A4C51B4
:10073000524019F02C51324009F446982091610240
:1007400030916202232B29F480916402882309F4FA
:1007500046C05E9844C087FF15C0909164029923FB
:1007600031F0813811F4686005C0803911F08038AB
:1007700021F460686093630231C08F77862B809389
:1007800063022CC0647449F040E150E0BE016F5F29
:100790007F4F87EA92EC88D322C0809100018113B9
:1007A00007C020915A0230915B022A303105B8F01F
:1007B00080910701809308018091060180930701D1
:1007C00080910501809306018091040180930501C9
:1007D00080910301809304011093030149DD80910E
:1007E0000001811307C081E090E090935D02809347
:1007F0005C0210C01093000181E090E090935F02D2
:1008000080935E0210925D0210925C0210925B0275
:1008100010925A0210925902109258020F900F90A3
:100820000F900F90DF91CF911F9108958091580202
:1008300090915902009739F120915A0230915B0250
:1008400036952795369527958217930710F40196CC
:100850003CC081E090E090935902809358028091CF
:100860000201882309F467C08091630280936502C6
:1008700080910001D7DC80936602F8D081115BC0C3
:1008800010926602F3C020915C0230915D0280916B
:100890005E0290915F0221153105E1F040919702CF
:1008A000442319F045E050E002C04EE150E0840FCF
:1008B000951F2817390738F42F5F3F4F30935D029B
:1008C00020935C02089581E090E090935902809318
:1008D0005802089520915A0230915B02211531058A
:1008E000D9F0C2962817390738F42F5F3F4F30935D
:1008F0005B0220935A0208958FEF809300011092BB
:100900005B0210925A0210925F0210925E021092E5
:100910005D0210925C020895009769F08A3F91058C
:1009200030F4019690935F0280935E0208951092D6
:100930005F0210925E0208957F928F929F92AF9213
:10094000BF92CF92DF92EF92FF920F931F93CF93BC
:10095000DF9372E1E72E72E0F72E0DE012E0912CAA
:10096000D701CD91DD917D01F80171908F01972D17
:100970009095888189238883F5E0FA95F1F7000046
:1009800055EFC52E51E0D52E69EEA62E61E0B62EAC
:10099000812C882D890DD601ED91FD916D01D50138
:1009A0009D915D0120819223282F30E0F901E059CB
:1009B000FD4F911105C09081911105C099DD03C0D3
:1009C000908191116FDCB5E08B0EECE38E12E1CFDC
:1009D00088818729888393949B12C2CF27DF8FE178
:1009E0009EE40197F1F700C00000DF91CF911F91C5
:1009F0000F91FF90EF90DF90CF90BF90AF909F90BE
:100A00008F907F90089584B7877F84BF88E10FB669
:100A1000F89480936000109260000FBE90E080E830
:100A20000FB6F89480936100909361000FBEB2DB23
:100A300083DFFECF8091E80080FFFCCF089580EA3D
:100A40008093D80086E089BD09B400FEFDCF80E820
:100A50008093D8001092E00010926D028CE0809399
:100A6000E2007894089580916D02089580916D025E
:100A7000882391F18FB7F89493E09093E9009091D7
:100A8000E4009E5C23E03091E80035FD0EC08FBF8E
:100A900080916D02882301F18091E4008917F1F0C3
:100AA0008FB7F8942093E900EECF90916502909370
:100AB000F1001092F100E6E6F2E091919093F100DE
:100AC00092E0EC36F907C9F79AE39093E8001092A8
:100AD0006E028FBF80E008958FEF08958FEF089525
:100AE0006093650280936602C1DF882329F4109227
:100AF000650210926602BACF08951F920F920FB648
:100B00000F9211242F938F939F93EF93FF938091D4
:100B1000E1001092E10083FF0FC01092E90091E024
:100B20009093EB001092EC0092E29093ED0098E02D
:100B30009093F00010926D0282FF34C080916D029C
:100B4000882381F120910C01222361F180916F02B1
:100B50008F5F80936F0290E083709070009711F523
:100B600083E08093E9008091E80085FF1BC08091BD
:100B70006E028F5F80936E028217A1F410926E0254
:100B8000809165028093F1001092F100E6E6F2E0B8
:100B900081918093F10082E0EC36F807C9F78AE38F
:100BA0008093E800FF91EF919F918F912F910F908B
:100BB0000FBE0F901F9018951F920F920FB60F92B5
:100BC0001124CF92DF92EF92FF920F931F932F93F6
:100BD0003F934F935F936F937F938F939F93AF93C5
:100BE000BF93EF93FF93DF93CF930F92CDB7DEB711
:100BF0001092E9008091E80083FF39C12091F10053
:100C00003091F1008091F100C82EDD244091F10077
:100C1000942F80E0C82AD92A0091F10010E0409179
:100C2000F100942F80E0082B192B6091F100A09126
:100C3000F10082EF8093E800363009F059C08BE76D
:100C400090E09C0125503040FC013797459154912C
:100C50004C155D05F9F4F901459154914017510780
:100C6000C9F42E5F3F4FF901859194912E5F3F4F5C
:100C7000F9012491462F50E07A2F60E0462B572B44
:100C80004F3F510519F010F04FEF50E0421750F46C
:100C9000242F08C00796295F3F4FF0E08C3A9F074A
:100CA00099F6E5C0AEEF4091E80050E0BA016570FA
:100CB000707061157105B9F342FDDCC0322F21322D
:100CC00008F030E2AC01632F07C0FA014F5F5F4FBD
:100CD000E491E093F10061506623B9F7830F911D11
:100CE000231BA093E8002223F1F63032E1F2C2C0C8
:100CF000353049F48EEF8093E8009CDE8C2D8068BF
:100D00008093E300B7C0393031F5222309F069C080
:100D1000C0926D028EEF8093E80041E085EA90E09A
:100D20004093E900FC010196E491E093EB00EE238F
:100D300069F09C012F5F3F4FFC0184918093EC0090
:100D4000C9010196F90124912093ED004F5F4530D0
:100D500039F78EE141C0383039F4203809F041C00C
:100D600069DE80916D0261C03323A9F4298362DEBC
:100D70002981223851F40093E9009091EB0081E041
:100D800095FF80E01092E90001C080E08093F100BF
:100D90001092F10068C0313011F0333011F522307B
:100DA00001F5C114D104E9F4402F4F77842F81500D
:100DB0008430B8F48EEF8093E8004093E90033303C
:100DC00009F455C089E18093EB0081E090E002C016
:100DD000880F991F4A95E2F78093EA001092EA0083
:100DE00049C00115110509F042C0213A09F5313019
:100DF00089F420DE809165028093F1001092F10069
:100E0000E6E6F2E081918093F10022E0EC36F20711
:100E1000C9F729C0323021F40DDE80910C0105C0E4
:100E2000333029F507DE80910D018093F1001BC05E
:100E30002132E9F4393061F48091E80082FFFCCF7F
:100E40008091F10080936C028BEF8093E8000BC0DF
:100E50003A3029F4D0920C0110926E0204C03B305B
:100E600031F4C0920D018EEF8093E80003C081E25F
:100E70008093EB000F90CF91DF91FF91EF91BF91A5
:100E8000AF919F918F917F916F915F914F913F9122
:100E90002F911F910F91FF90EF90DF90CF900F90C7
:100EA0000FBE0F901F901895FB019F01E8944230F0
:100EB000BCF04532ACF44A3029F497FB1EF490950F
:100EC00081959F4F642F77271ED0805D8A330CF069
:100ED000895D8193CB010097A9F716F45DE25193E8
:100EE0001082C90100C0DC01FC01672F71917723DA
:100EF000E1F7329704C07C916D9370836291AE17D5
:100F0000BF07C8F30895AA1BBB1B51E107C0AA1F66
:100F1000BB1FA617B70710F0A61BB70B881F991F9A
:100F20005A95A9F780959095BC01CD010895F89444
:020F3000FFCFF1
:100F3200FF0101FFFFFFFFFFFFFF1C027D012E01EA
:100F42002C012A01280118010602040017000502DB
:100F520012000400150007003D003C003B003A006F
:100F62000A0E13181D352B90FDFB1E4B4E88F11FE8
:100F72004A50F4F4205251F484214D4FF481223529
:100F820028F4F3235455622C245F5C59FF25605DDD
:100F92005AC026615E5B0027565763F22D292853FB
:100FA2002E462B90FDFB3A000088F13B000000002A
:100FB2003C000000843D000000813E350000F33F0C
:100FC200F9282AFC404A504CFF41525149FE424DF9
:100FD2004F0000434B4E00FA4429484745352B90B9
:100FE200FD291E140488F11F1A161B1D200807066E
:100FF20084211509198122170A05F3231C0B112CD0
:1010020024180D10FF250C0E36C026120F37382774
:10101200133331F22D2F34302E0801100104201029
:10102200100420808029002900290023002600299D
:101032000023002600230023002600230020044072
:10104200080228002B00250025002500352B90FDE5
:10105200291E0D0988F11F061C381420181A16843F
:10106200210E0410812208130CF3231115172C24CE
:101072000A121BFF250B0F05C02619073637271D3D
:081082003331F22D2F34302E22
:00000001FF
