:10000000A2C00000BBC00000B9C00000B7C0000023
:10001000B5C00000B3C00000B1C00000AFC0000018
:10002000ADC00000ABC00000A9C0000054C5000076
:10003000B1C50000A3C00000A1C000009FC0000027
:100040009DC000009BC0000099C0000097C0000048
:1000500095C0000093C0000091C000008FC0000058
:100060008DC000008BC0000089C0000087C0000068
:1000700085C0000000010000AB001200020000BDBE
:10008000002200220000DF003F00210000CF000915
:10009000000300001E01040103090422010E0203F3
:1000A0000904320112000001C10600120100020021
:1000B000000020C0167C0400010102000109022298
:1000C00000010100C0320904000001030101000920
:1000D0002111010001223F000705830308000105EB
:1000E000010906A10175019508050719E029E71521
:1000F00000250181029501750881039505750105AB
:10010000081901290591029501750391039506755A
:1001100008150025680507190029688100C0040337
:1001200009040E03690062006E00540065006F0050
:100130000000120343006100740062006F00610060
:1001400072006400000011241FBECFEFD2E0DEBFBA
:10015000CDBF12E0A0E0B1E0E8E8FEE002C005900B
:100160000D92A233B107D9F712E0A2E3B2E001C0C9
:100170001D92A638B107E1F734D484C641CF8AE492
:1001800084B980E287B984E08AB98FEF85B988B9EC
:100190008BB9089580E88093610010926100EFDFD1
:1001A000569A3E9A519A469A599880910101811126
:1001B0005E98EAE4F2E0119282E0E638F807D9F7B7
:1001C0002CD43FD48823E9F35E9A809101018111F8
:1001D0004698089580913E02882391F088E08093AC
:1001E0003F021092400230D42FEF80E792E021507E
:1001F00080409040E1F700C0000068E08CE211C050
:1002000084E080933F02109240021ED42FEF80E7DB
:1002100092E0215080409040E1F700C0000066E08D
:1002200080E04CC48C3310F5282F30E0F901E65BF8
:10023000FD4F9081913039F4F901E65BFE4F8081EA
:100240001816ACF013C040910A0150910B0161E007
:100250004A34560731F0923021F4F901EA57FE4F43
:1002600003C0FA01E80FF11D8081089580E0089530
:100270000F931F93CF93DF93C3E0D1E000E412E02C
:100280008991D0DFF80181938F01F1E0C930DF0758
:10029000B9F780913D0280933F02DF91CF911F918A
:1002A0000F91D2C3CF93DF93D82F282F30E0F901DD
:1002B000E65BFD4FC081C13021F4F901E65BFE4FE2
:1002C00013C0E0910A01F0910B01E20FF31F90813E
:1002D000C63059F440913B0250913C024115510502
:1002E00021F0FA01E20FF31F9081F901E65BFD4F67
:1002F000108280913A028111F8C0913F08F4A4C0A5
:100300009D3F39F4C33009F4F0C080913D028B7FEA
:10031000B4C0913F09F03DC080913D02C53011F459
:100320008E7FABC08D7F80933D02A2DF8091000164
:100330008D1386C08091380290913902009709F49C
:100340007FC0C29708F07CC0C43009F479C08091A6
:100350000A0190910B0121E08638920709F470C0E0
:100360008A54914039F486E891E090933C0280935E
:100370003B0206C086E891E090930B0180930A014E
:1003800029DF469A80910101882309F459C0599ABE
:1003900057C0923FB9F580913D028F7D80933D0219
:1003A00067DF809100018D134BC0809138029091DE
:1003B0003902009709F444C0C29708F041C0C43024
:1003C00009F43EC080910A0190910B0121E0853F24
:1003D0009207B1F18A54914039F485EF91E09093FE
:1003E0003C0280933B0206C085EF91E090930B01A5
:1003F00080930A01EFDE599880910101882301F171
:1004000046981EC0933F09F070C080913D028D7FD9
:1004100080933D022DDF809100018D1311C08091EA
:10042000380290913902009759F0C29748F4C230CF
:1004300039F080913D02811103C060E08CE23ED32F
:100440008FEF8093000141C097FF1CC080913E0256
:10045000882341F0913821F480913D02877F0DC0BF
:10046000903911F0903821F480913D028F7705C0CA
:100470009F77909580913D02892380933D02DF9183
:10048000CF91F6CEE3E0F1E090E081918D1759F045
:100490009F5F9630D1F707C0E92FF0E0ED5FFE4F88
:1004A000818180839F5F9630B9F7E2DE8091000101
:1004B0008D130BC0109237021092360281E090E04B
:1004C00090933502809334020CC01092390210923E
:1004D00038021092370210923602109235021092B2
:1004E00034021092330210923202DF91CF910895BC
:1004F000CF93C82F60913D02962F9D7D282F30E02D
:1005000080917102811104C0992321F082E003C01F
:1005100081E001C08FEFF901E65BFD4F8083813000
:1005200021F4F901E65BFE4F06C0E0910A01F0916B
:100530000B01EC0FF11D8081811121C04C2F50E087
:10054000E0910A01F0910B01E40FF51F80819923DE
:1005500011F092E001C09FEFF901E65BFD4F90833F
:1005600081110DC0A0913B02B0913C02109739F06F
:10057000611105C0A40FB51F8C9196E090839091F6
:100580003A02992321F08A3F09F03CC1A0C0813F83
:1005900008F4E2C08D3F19F5F901E65BFD4F80815B
:1005A000813019F464E08BE265C0611104C084E01D
:1005B00080933D0202C083E0808380913D0280935E
:1005C0003F028BE2809340023FD22FEF80E792E020
:1005D000215080409040E1F700C00000F3C08E3F02
:1005E00049F520913B0230913C022115310549F03B
:1005F00030930B0120930A0110923C0210923B02AF
:100600000EC080910A0190910B0190933C0280935F
:100610003B022EE031E030930B0120930A01209140
:100620003B0230913C02232BF9F480913E02882357
:10063000F1F01AC08C3F01F5F901E65BFD4F8081B6
:100640008130B9F4862F8272A1F081E090913E0250
:10065000911180E080933E02811106C020913B02FF
:1006600030913C02232B19F08091010171C05E9AF8
:10067000AAC08CE223D2A7C0813F91F4862F827258
:1006800039F0F901E65BFD4F85E08083616019C0B8
:100690006623B1F0F901E65BFD4F84E0808310C072
:1006A000823F11F460620DC08B3F41F481E0909174
:1006B0000201911180E08093020185C0833F21F403
:1006C000626060933D027EC08A3F91F408C0109240
:1006D0003A0280910101882309F475C019C081E0B4
:1006E00080933A025E9A469A599868E08FE0C2CFAA
:1006F000893F09F068C080910101882331F0109290
:1007000001015E9A469A59985EC081E0809301018A
:1007100040910A0150910B0120913B0230913C0223
:1007200081E04638580721F091E02638390709F46E
:10073000599A455F514019F0255F314009F44698B8
:1007400020913B0230913C02232B21F480913E0208
:100750008823C9F15E9837C087FF13C090913E028D
:10076000992331F0813811F46860ABCF803911F0F2
:10077000803811F46068A5CF8F77862B80933D0277
:1007800021C0809100018C1307C020913402309168
:1007900035022A303105B8F08091070180930801B5
:1007A00080910601809307018091050180930601E5
:1007B00080910401809305018091030180930401DD
:1007C000C093030155DD809100018C1307C081E0C7
:1007D00090E0909337028093360210C0C0930001DE
:1007E00081E090E0909339028093380210923702B2
:1007F0001092360210923502109234021092330297
:1008000010923202CF91089580913202909133027A
:10081000009739F1209134023091350236952795B1
:10082000369527958217930710F401963CC081E016
:1008300090E09093330280933202809102018823EA
:1008400009F467C080913D0280933F0280910001CE
:10085000E9DC80934002F8D081115BC01092400225
:10086000F3C0209136023091370280913802909186
:10087000390221153105E1F040917102442319F04C
:1008800045E050E002C04EE150E0840F951F28176C
:10089000390738F42F5F3F4F3093370220933602E9
:1008A000089581E090E0909333028093320208959E
:1008B000209134023091350221153105D9F0C296CC
:1008C0002817390738F42F5F3F4F309335022093B4
:1008D000340208958FEF8093000110923502109238
:1008E000340210923902109238021092370210929C
:1008F00036020895009769F08A3F910530F4019619
:100900009093390280933802089510923902109220
:10091000380208957F928F929F92AF92BF92CF92AA
:10092000DF92EF92FF920F931F93CF93DF937BEEB3
:10093000E72E71E0F72E06EE11E0912CD701CD9154
:10094000DD917D01F80171908F01972D909588813F
:1009500089238883F5E0FA95F1F700005EECC52E57
:1009600051E0D52E62ECA62E61E0B62E812C882DAA
:10097000890DD601ED91FD916D01D5019D915D012E
:1009800020819223282F30E0F901E65BFD4F911181
:1009900005C09081911105C0ABDD03C0908191111C
:1009A00081DCB5E08B0EECE38E12E1CF88818729E4
:1009B000888393949B12C2CF27DF8FE19EE4019737
:1009C000F1F700C00000DF91CF911F910F91FF90D0
:1009D000EF90DF90CF90BF90AF909F908F907F90DF
:1009E000089584B7877F84BF88E10FB6F894809319
:1009F0006000109260000FBE90E080E80FB6F8949F
:100A000080936100909361000FBEC4DB83DFFECF53
:100A10008091E80080FFFCCF089580EA8093D800A1
:100A200086E089BD09B400FEFDCF80E88093D80040
:100A30001092E000109247028CE08093E2007894DC
:100A4000089580914702089580914702882391F18B
:100A50008FB7F89493E09093E9009091E4009E5C46
:100A600023E03091E80035FD0EC08FBF8091470232
:100A7000882301F18091E4008917F1F08FB7F89491
:100A80002093E900EECF90913F029093F1001092F5
:100A9000F100E0E4F2E091919093F10092E0E6340D
:100AA000F907C9F79AE39093E800109248028FBFC4
:100AB00080E008958FEF08958FEF089560933F02CF
:100AC00080934002C1DF882329F410923F021092E4
:100AD0004002BACF08951F920F920FB60F921124C1
:100AE0002F938F939F93EF93FF938091E100109248
:100AF000E10083FF0FC01092E90091E09093EB00BA
:100B00001092EC0092E29093ED0098E09093F00048
:100B10001092470282FF34C080914702882381F1FE
:100B200020910C01222361F1809149028F5F809313
:100B3000490290E083709070009711F583E08093F4
:100B4000E9008091E80085FF1BC0809148028F5F1B
:100B5000809348028217A1F41092480280913F02CC
:100B60008093F1001092F100E0E4F2E08191809333
:100B7000F10082E0E634F807C9F78AE38093E800E1
:100B8000FF91EF919F918F912F910F900FBE0F903A
:100B90001F9018951F920F920FB60F921124CF92AB
:100BA000DF92EF92FF920F931F932F933F934F93F8
:100BB0005F936F937F938F939F93AF93BF93EF93C5
:100BC000FF93DF93CF930F92CDB7DEB71092E9007A
:100BD0008091E80083FF39C12091F1003091F1004C
:100BE0008091F100C82EDD244091F100942F80E027
:100BF000C82AD92A0091F10010E04091F100942F09
:100C000080E0082B192B6091F100A091F10082EF98
:100C10008093E800363009F059C08BE790E09C01E2
:100C200025503040FC013797459154914C155D0596
:100C3000F9F4F9014591549140175107C9F42E5F19
:100C40003F4FF901859194912E5F3F4FF901249117
:100C5000462F50E07A2F60E0462B572B4F3F51052F
:100C600019F010F04FEF50E0421750F4242F08C055
:100C70000796295F3F4FF0E08C3A9F0799F6E5C051
:100C8000AEEF4091E80050E0BA01657070706115F8
:100C90007105B9F342FDDCC0322F213208F030E299
:100CA000AC01632F07C0FA014F5F5F4FE491E093FF
:100CB000F10061506623B9F7830F911D231BA093A8
:100CC000E8002223F1F63032E1F2C2C0353049F4B7
:100CD0008EEF8093E8009CDE8C2D80688093E3008B
:100CE000B7C0393031F5222309F069C0C0924702FC
:100CF0008EEF8093E80041E085EA90E04093E900C0
:100D0000FC010196E491E093EB00EE2369F09C0175
:100D10002F5F3F4FFC0184918093EC00C901019645
:100D2000F90124912093ED004F5F453039F78EE1B2
:100D300041C0383039F4203809F041C069DE809173
:100D4000470261C03323A9F4298362DE2981223856
:100D500051F40093E9009091EB0081E095FF80E071
:100D60001092E90001C080E08093F1001092F10040
:100D700068C0313011F0333011F5223001F5C11463
:100D8000D104E9F4402F4F77842F81508430B8F498
:100D90008EEF8093E8004093E900333009F455C0AA
:100DA00089E18093EB0081E090E002C0880F991FF9
:100DB0004A95E2F78093EA001092EA0049C00115D3
:100DC000110509F042C0213A09F5313089F420DEDD
:100DD00080913F028093F1001092F100E0E4F2E094
:100DE00081918093F10022E0E634F207C9F729C02F
:100DF000323021F40DDE80910C0105C0333029F52D
:100E000007DE80910D018093F1001BC02132E9F4CF
:100E1000393061F48091E80082FFFCCF8091F100CD
:100E2000809346028BEF8093E8000BC03A3029F4A0
:100E3000D0920C011092480204C03B3031F4C092B1
:100E40000D018EEF8093E80003C081E28093EB00F8
:100E50000F90CF91DF91FF91EF91BF91AF919F9153
:100E60008F917F916F915F914F913F912F911F9142
:100E70000F91FF90EF90DF90CF900F900FBE0F90EB
:080E80001F901895F894FFCFB4
:100E8800FF0101FFFFFFFFFFFFFFF5017D01352B8C
:100E980090FDFB1E4B4E88F11F4A50000020525116
:100EA8000084214D4F008122352800F323545562D8
:100EB8002C245F5C59FF25605D5AC026615E5B008B
:100EC80027565763F22D2928532E462B90FDFB3ABF
:100ED800000088F13B000000003C000000843D0059
:100EE8000000813E350000F33FF9282AFC404A50B3
:100EF8004CFF41525149FE424D4F0000434B4E00BA
:100F0800FA4429484745352B90FD291E140488F1D9
:100F18001F1A161B1D20080706842115091981228E
:100F2800170A05F3231C0B112C24180D10FF250C90
:100F38000E36C026120F373827133331F22D2F34CF
:100F4800302E080110010420101004208080290090
:100F58002900290023002600290023002600230059
:100F6800230026002300200440080228002B002527
:100F78000025002500352B90FD291E0D0988F11F3D
:100F8800061C381420181A1684210E041081220811
:100F9800130CF3231115172C240A121BFF250B0F12
:100FA80005C02619073637271D3331F22D2F343067
:020FB8002E0009
:00000001FF
