:10000000A2C00000BBC00000B9C00000B7C0000023
:10001000B5C00000B3C00000B1C00000AFC0000018
:10002000ADC00000ABC00000A9C00000B4C4000017
:1000300011C50000A3C00000A1C000009FC00000C7
:100040009DC000009BC0000099C0000097C0000048
:1000500095C0000093C0000091C000008FC0000058
:100060008DC000008BC0000089C0000087C0000068
:1000700085C0000000010000AB001200020000BDBE
:10008000002200220000DF003F00210000CF000915
:10009000000300001E01040103090422010E0203F3
:1000A0000904320112000001C10600120100020021
:1000B000000020C0167C0400010102000109022298
:1000C00000010100C0320904000001030101000920
:1000D0002111010001223F000705830308000105EB
:1000E000010906A10175019508050719E029E71521
:1000F00000250181029501750881039505750105AB
:10010000081901290591029501750391039506755A
:1001100008150025680507190029688100C0040337
:1001200009040E03690062006E00540065006F0050
:100130000000120343006100740062006F00610060
:1001400072006400000011241FBECFEFD2E0DEBFBA
:10015000CDBF12E0A0E0B1E0E8E4FDE002C0059010
:100160000D92A033B107D9F712E0A0E3B2E001C0CD
:100170001D92A338B107E1F794D3E4C541CF80E8DD
:10018000809361001092610014B894EF97B91AB887
:100190008FEF85B998B98BB9549A5C9AE7E4F2E08D
:1001A000119222E0E338F207D9F797D35C98A9D3EC
:1001B0008823E9F35C9A8FEF93ED20E38150904020
:1001C0002040E1F700C000005C98089580913B0258
:1001D000882391F088E080933C0210923D0294D3F2
:1001E0002FEF80E792E0215080409040E1F700C07F
:1001F000000068E08CE211C084E080933C02109221
:100200003D0282D32FEF80E792E021508040904062
:10021000E1F700C0000066E080E0B0C38C3310F569
:10022000282F30E0F901E95BFD4F9081913039F4DE
:10023000F901E458FE4F80811816ACF013C04091CC
:10024000090150910A0161E04C37560731F09230B4
:1002500021F4F901E854FE4F03C0FA01E80FF11D43
:100260008081089580E008950F931F93CF93DF93CB
:10027000C2E0D1E00DE312E08991D0DFF801819373
:100280008F01F1E0C830DF07B9F780913A0280931F
:100290003C02DF91CF911F910F9136C3CF93DF9333
:1002A000D82F282F30E0F901E95BFD4FC081C13024
:1002B00021F4F901E458FE4F13C0E0910901F091D7
:1002C0000A01E20FF31F9081C63059F440913802C1
:1002D000509139024115510521F0FA01E20FF31F47
:1002E0009081F901E95BFD4F1082913F08F45EC0F7
:1002F0009D3F39F4C33009F4AAC080913A028B7F44
:100300006EC0913F49F580913A02C53011F48E7F5D
:1003100066C08D7F80933A02A7DF809100018D1324
:1003200096C0C43009F493C08091090190910A01EC
:1003300021E0883B920709F48AC08C57914019F458
:1003400088EB91E02BC088EB91E090930A018093B9
:100350000901DF91CF913ACF923F09F078C08091A7
:100360003A02C53011F48F7E3AC08F7D80933A02F5
:100370007BDF809100018D136AC0C43009F467C02F
:100380008091090190910A0121E0843F920709F4CC
:100390005EC08C57914039F484EF91E0909339021C
:1003A00080933802D6CF84EF91E0CFCF97FF1CC067
:1003B00080913B02882341F0913821F480913A02E8
:1003C000877F0DC0903911F0903821F480913A0266
:1003D0008F7705C09F77909580913A02892380930B
:1003E0003A02DF91CF9140CFE2E0F1E090E08191DD
:1003F0008D1759F09F5F9630D1F707C0E92FF0E0D5
:10040000EE5FFE4F818180839F5F9630B9F72CDFCE
:10041000809100018D130BC01092350210923402AE
:1004200081E090E090933302809332020CC01092EE
:100430003702109236021092350210923402109256
:100440003302109232021092310210923002DF9188
:10045000CF910895CF93C82F60913A02962F9D7D3A
:10046000282F30E080916A02811104C0992321F085
:1004700082E003C081E001C08FEFF901E95BFD4F2D
:100480008083813021F4F901E458FE4F06C0E091E9
:100490000901F0910A01EC0FF11D8081811122C048
:1004A0004C2F50E0E0910901F0910A01E40FF51F93
:1004B0008081992311F072E001C07FEFF901E95BBF
:1004C000FD4F708381110EC0A0913802B0913902A6
:1004D000109709F4B6C06111B4C0A40FB51F8C9178
:1004E00046E04083813F08F497C08D3F19F5F9013C
:1004F000E95BFD4F8081813019F464E08BE264C0D8
:10050000911104C0646060933A0202C083E080836A
:1005100080913A0280933C028BE280933D02F4D1B9
:100520002FEF80E792E0215080409040E1F700C03B
:100530000000A8C08E3F49F5209138023091390261
:100540002115310549F030930A01209309011092D9
:100550003902109238020EC02091090130910A012F
:10056000309339022093380220E431E030930A01BD
:10057000209309012091380230913902232BF9F49C
:1005800080913B028823E9F01AC08C3FF9F4F9010D
:10059000E95BFD4F80818130B1F4862F827299F042
:1005A00081E090913B02911180E080933B028111A8
:1005B00006C02091380230913902232B11F05C9A49
:1005C00062C05C9860C08CE2D9D15DC0813FA9F463
:1005D000862F827239F0F901E95BFD4F85E0808357
:1005E000616008C0662329F0F901E95BFD4F84E0F2
:1005F0008083626060933A0245C0823F11F460627A
:10060000F9CF8B3F09F03FC081E09091010191113A
:1006100080E08093010137C087FF13C090913B02B7
:10062000992331F0813811F46860E4CF803911F0FA
:10063000803811F46068DECF8F77862B80933A0282
:1006400021C0809100018C1307C0209132023091AB
:1006500033022A303105B8F08091060180930701FA
:10066000809105018093060180910401809305012A
:100670008091030180930401809102018093030122
:10068000C0930201F1DD809100018C1307C081E06D
:1006900090E0909335028093340210C0C093000123
:1006A00081E090E0909337028093360210923502F9
:1006B00010923402109233021092320210923102E0
:1006C00010923002CF9108958091300290913102C2
:1006D000009739F1209132023091330236952795F7
:1006E000369527958217930710F401963CC081E058
:1006F00090E0909331028093300280910101882331
:1007000009F467C080913A0280933C028091000115
:1007100085DD80933D02F8D081115BC010923D02CF
:10072000F3C02091340230913502809136029091CD
:10073000370221153105E1F040916A02442319F096
:1007400045E050E002C04EE150E0840F951F2817AD
:10075000390738F42F5F3F4F30933502209334022E
:10076000089581E090E090933102809330020895E3
:10077000209132023091330221153105D9F0C29611
:100780002817390738F42F5F3F4F309333022093F7
:10079000320208958FEF809300011092330210927D
:1007A00032021092370210923602109235021092E5
:1007B00034020895009769F08A3F910530F401965C
:1007C0009093370280933602089510923702109268
:1007D000360208957F928F929F92AF92BF92CF92EE
:1007E000DF92EF92FF920F931F93CF93DF9376E305
:1007F000E72E71E0F72E01E311E0912CD701CD91A6
:10080000DD917D01F80171908F01972D9095888180
:1008100089238883F5E0FA95F1F7000059E1C52EA8
:1008200051E0D52E6DE0A62E61E0B62E812C882DEC
:10083000890DD601ED91FD916D01D5019D915D016F
:1008400020819223282F30E0F901E95BFD4F9111BF
:1008500005C09081911105C0FDDD03C0908191110B
:100860001DDDB5E08B0EECE38E12E1CF8881872988
:10087000888393949B12C2CF27DF8FE19EE4019778
:10088000F1F700C00000DF91CF911F910F91FF9011
:10089000EF90DF90CF90BF90AF909F908F907F9020
:1008A000089584B7877F84BF88E10FB6F89480935A
:1008B0006000109260000FBE90E080E80FB6F894E0
:1008C00080936100909361000FBE59DC83DFFECFFF
:1008D0008091E80080FFFCCF089580EA8093D800E3
:1008E00086E089BD09B400FEFDCF80E88093D80082
:1008F0001092E000109244028CE08093E200789421
:10090000089580914402089580914402882391F1D2
:100910008FB7F89493E09093E9009091E4009E5C87
:1009200023E03091E80035FD0EC08FBF8091440276
:10093000882301F18091E4008917F1F08FB7F894D2
:100940002093E900EECF90913C029093F100109239
:10095000F100EDE3F2E091919093F10092E0E33445
:10096000F907C9F79AE39093E800109245028FBF08
:1009700080E008958FEF08958FEF089560933C0213
:1009800080933D02C1DF882329F410923C0210922B
:100990003D02BACF08951F920F920FB60F92112405
:1009A0002F938F939F93EF93FF938091E100109289
:1009B000E10083FF0FC01092E90091E09093EB00FB
:1009C0001092EC0092E29093ED0098E09093F0008A
:1009D0001092440282FF34C080914402882381F146
:1009E00020910B01222361F1809146028F5F809359
:1009F000460290E083709070009711F583E0809339
:100A0000E9008091E80085FF1BC0809145028F5F5F
:100A1000809345028217A1F41092450280913C0216
:100A20008093F1001092F100EDE3F2E08191809368
:100A3000F10082E0E334F807C9F78AE38093E80025
:100A4000FF91EF919F918F912F910F900FBE0F907B
:100A50001F9018951F920F920FB60F921124CF92EC
:100A6000DF92EF92FF920F931F932F933F934F9339
:100A70005F936F937F938F939F93AF93BF93EF9306
:100A8000FF93DF93CF930F92CDB7DEB71092E900BB
:100A90008091E80083FF39C12091F1003091F1008D
:100AA0008091F100C82EDD244091F100942F80E068
:100AB000C82AD92A0091F10010E04091F100942F4A
:100AC00080E0082B192B6091F100A091F10082EFDA
:100AD0008093E800363009F059C08BE790E09C0124
:100AE00025503040FC013797459154914C155D05D8
:100AF000F9F4F9014591549140175107C9F42E5F5B
:100B00003F4FF901859194912E5F3F4FF901249158
:100B1000462F50E07A2F60E0462B572B4F3F510570
:100B200019F010F04FEF50E0421750F4242F08C096
:100B30000796295F3F4FF0E08C3A9F0799F6E5C092
:100B4000AEEF4091E80050E0BA0165707070611539
:100B50007105B9F342FDDCC0322F213208F030E2DA
:100B6000AC01632F07C0FA014F5F5F4FE491E09340
:100B7000F10061506623B9F7830F911D231BA093E9
:100B8000E8002223F1F63032E1F2C2C0353049F4F8
:100B90008EEF8093E8009CDE8C2D80688093E300CC
:100BA000B7C0393031F5222309F069C0C092440240
:100BB0008EEF8093E80041E085EA90E04093E90001
:100BC000FC010196E491E093EB00EE2369F09C01B7
:100BD0002F5F3F4FFC0184918093EC00C901019687
:100BE000F90124912093ED004F5F453039F78EE1F4
:100BF00041C0383039F4203809F041C069DE8091B5
:100C0000440261C03323A9F4298362DE298122389A
:100C100051F40093E9009091EB0081E095FF80E0B2
:100C20001092E90001C080E08093F1001092F10081
:100C300068C0313011F0333011F5223001F5C114A4
:100C4000D104E9F4402F4F77842F81508430B8F4D9
:100C50008EEF8093E8004093E900333009F455C0EB
:100C600089E18093EB0081E090E002C0880F991F3A
:100C70004A95E2F78093EA001092EA0049C0011514
:100C8000110509F042C0213A09F5313089F420DE1E
:100C900080913C028093F1001092F100EDE3F2E0CC
:100CA00081918093F10022E0E334F207C9F729C073
:100CB000323021F40DDE80910B0105C0333029F56F
:100CC00007DE80910C018093F1001BC02132E9F412
:100CD000393061F48091E80082FFFCCF8091F1000F
:100CE000809343028BEF8093E8000BC03A3029F4E5
:100CF000D0920B011092450204C03B3031F4C092F7
:100D00000C018EEF8093E80003C081E28093EB003A
:100D10000F90CF91DF91FF91EF91BF91AF919F9194
:100D20008F917F916F915F914F913F912F911F9183
:100D30000F91FF90EF90DF90CF900F900FBE0F902C
:080D40001F901895F894FFCFF5
:100D4800FF01FFFFFFFFFFFFFFF4017D01402008C7
:100D580004020180402010020129002900290029ED
:100D68000029002900230023002300230023002357
:100D780000804020100428002800280028002800AF
:100D88002982902B35FD004E4B1E8400504A1F844B
:100D98000051522081004F4D212C002835222C6211
:100DA800555423FF595C5F24C05A5D6025285B5E5B
:100DB800612653635756272EA028292DFBF1902B27
:100DC80046FD0000003A840000003B840000003C1F
:100DD800810000003D820000353EFC2A28283FFFA4
:100DE8004C504A40FE4951524100004F4D42470085
:100DF8004E4B4345F248294429F1902B35FD1D04FB
:100E0800141E841B161A1F84060708208119091549
:100E18002182050A17222C110B1C23FF100D182400
:100E2800C0360E0C2531370F122630383313272ED3
:100E3800F2342F2D29F1902B35FD14090D1E84381D
:100E48001C061F84161918208110040E21820C1309
:100E580008222C17151123FF1B120A24C0050F0B9B
:100E6800253136071A263037331D272EF2342F2D19
:00000001FF
