:10000000A2C00000BBC00000B9C00000B7C0000023
:10001000B5C00000B3C00000B1C00000AFC0000018
:10002000ADC00000ABC00000A9C00000CAC5000000
:1000300027C60000A3C00000A1C000009FC00000B0
:100040009DC000009BC0000099C0000097C0000048
:1000500095C0000093C0000091C000008FC0000058
:100060008DC000008BC0000089C0000087C0000068
:1000700085C0000000010000AB001200020000BDBE
:10008000002200220000DF003F00210000CF000915
:10009000000300001E01040103090422010E0203F3
:1000A0000904320112000001C10600120100020021
:1000B000000020C0167C0400010102000109022298
:1000C00000010100C0320904000001030101000920
:1000D0002111010001223F000705830308000105EB
:1000E000010906A10175019508050719E029E71521
:1000F00000250181029501750881039505750105AB
:10010000081901290591029501750391039506755A
:1001100008150025680507190029688100C0040337
:1001200009040E03690062006E00540065006F0050
:100130000000120343006100740062006F00610060
:1001400072006400000011241FBECFEFD2E0DEBFBA
:10015000CDBF12E0A0E0B1E0E4E7FFE002C005900F
:100160000D92AA35B107D9F712E0AAE5B2E001C0B5
:100170001D92AE3AB107E1F7AAD4FAC641CF8AE49C
:1001800084B980E287B984E08AB98FEF85B988B9EC
:100190008BB9089580E88093610010926100EFDFD1
:1001A000569A3E9A519A469A599880910101811126
:1001B0005E98E2E7F2E0119282E0EE3AF807D9F7B2
:1001C000A2D4B5D48823E9F35E9A8091010181110C
:1001D000469880916E0280936602089520916E0287
:1001E00022702093660280910A0190910B012223D4
:1001F000D9F021E08E3A920781F18257914039F48B
:100200008EEA91E0909364028093630206C08EEAC6
:1002100091E090930B0180930A01469A809101012D
:100220008823D9F0599A089522E08D319207A9F0D8
:100230008257914039F48DE192E09093640280936B
:10024000630206C08DE192E090930B0180930A0156
:1002500059988091010181114698089580910C016F
:10026000823091F488E0809367021092680262D431
:100270002FEF80E792E0215080409040E1F700C0EE
:10028000000068E08CE211C084E080936702109265
:10029000680250D42FEF80E792E0215080409040D8
:1002A000E1F700C0000066E080E07EC48C3310F50A
:1002B000282F30E0F901EE58FD4F9081913039F44C
:1002C000F901EE58FE4F80811816ACF013C0409132
:1002D0000A0150910B0161E04237560731F092302C
:1002E00021F4F901E255FE4F03C0FA01E80FF11DB8
:1002F0008081089580E008950F931F93CF93DF933B
:10030000C3E0D1E008E612E08991D0DFF8018193E3
:100310008F01F1E0C930DF07B9F780916502809362
:100320006702DF91CF911F910F9104C4CF93DF93A8
:10033000D82F282F30E0F901EE58FD4FC081C13091
:1003400021F4F901EE58FE4F13C0E0910A01F0913B
:100350000B01E20FF31F9081C63059F44091630204
:10036000509164024115510521F0FA01E20FF31F8B
:100370009081F901EE58FD4F108280916202811147
:1003800014C19D3608F4A2C09D3731F4C33009F47E
:100390000CC180916502BDC09D3609F03CC08091C2
:1003A0006502C53009F4ACC08D7F80936502A4DF7F
:1003B000809100018D1386C080916002909161024E
:1003C000009709F47FC0C29708F07CC0C43009F4DC
:1003D00079C080910A0190910B0121E08E3A920739
:1003E00009F470C08257914039F48EEA91E09093FD
:1003F00064028093630206C08EEA91E090930B0141
:1004000080930A012BDF469A80910101882309F429
:1004100059C0599A57C09E36B9F5809165028F7DB3
:100420008093650269DF809100018D134BC080913C
:10043000600290916102009709F444C0C29708F0ED
:1004400041C0C43009F43EC080910A0190910B0173
:1004500022E08D319207B1F18257914039F48DE15C
:1004600092E0909364028093630206C08DE192E073
:1004700090930B0180930A01F1DE5998809101015C
:10048000882301F146981EC0973709F08EC08091ED
:1004900065028D7F809365022FDF809100018D13AF
:1004A00011C08091600290916102009759F0C2974B
:1004B00048F4C23039F080916502811103C060E0D8
:1004C0008CE272D38FEF809300015AC09536A8F169
:1004D00080910C01823051F4953621F480916502AF
:1004E000877926C0993609F05CC002C09C3621F499
:1004F0008091650283791CC0953621F48091650254
:100500008E7F16C080916502963609F40EC097362C
:1005100011F48B7F0DC0983611F4877F09C099368E
:1005200011F48F7E05C09A3611F48D7F01C08F7B48
:1005300080936502DF91CF91DFCEE3E0F1E090E0C0
:1005400081918D1759F09F5F9630D1F707C0E92F41
:10055000F0E0ED5FFE4F818180839F5F9630B9F7B9
:10056000CBDE809100018D130BC010925F021092C0
:100570005E0281E090E090935D0280935C020CC08B
:10058000109261021092600210925F0210925E025D
:1005900010925D0210925C0210925B0210925A025D
:1005A00004C09C3609F0AECFA3CFDF91CF91089560
:1005B000CF93C82F60916502962F9D7D282F30E044
:1005C00080919902811104C0992321F082E003C037
:1005D00081E001C08FEFF901EE58FD4F808381303B
:1005E00021F4F901EE58FE4F06C0E0910A01F091A6
:1005F0000B01EC0FF11D8081811121C04C2F50E0C7
:10060000E0910A01F0910B01E40FF51F808199231D
:1006100011F092E001C09FEFF901EE58FD4F908379
:1006200081110DC0A0916302B0916402109739F05E
:10063000611105C0A40FB51F8C9196E09083909135
:100640006202992321F08A3709F04BC197C08D3699
:1006500008F4D5C08D3719F5F901EE58FD4F8081AA
:10066000813019F464E08BE25CC0611104C084E065
:100670008093650202C083E080838091650280934D
:1006800067028BE28093680255D22FEF80E792E0F9
:10069000215080409040E1F700C00000FDC08E373F
:1006A00049F5F901EE58FD4F8081813009F0F5C020
:1006B000627209F4F2C02091630230916402211544
:1006C000310549F030930B0120930A011092640226
:1006D00010926302E2C020910A0130910B01309325
:1006E00064022093630226E331E030930B012093F0
:1006F0000A01D3C08C37B9F4F901EE58FD4F80815F
:10070000813071F4862F827259F080910C018F5FD5
:1007100080930C01833008F4C0C010920C01BDC05E
:100720008CE242D2BAC08D3691F4862F827231F0BB
:10073000F901EE58FD4F85E0808374C0662309F40B
:1007400084C0F901EE58FD4F84E080837EC08E3670
:1007500011F460627DC08B3741F481E09091020119
:10076000911180E08093020198C0873709F46DC031
:100770008F3609F492C08A3791F408C01092620251
:1007800080910101882309F488C01CC081E0809316
:1007900062025E9A469A599868E08FE0C2CF893724
:1007A00009F07BC0627209F478C08091010188234E
:1007B00031F0109201015E9A469A59986EC081E01C
:1007C0008093010120910A0130910B0181E02E3AC2
:1007D000380739F040916302509164024E5A5140FB
:1007E00009F4599A2D51324041F020916302309121
:1007F00064022D51324009F050C046984EC08536F3
:1008000050F190910C01923039F4853609F415C0FD
:10081000893609F062C002C08C3611F4606818C0D5
:10082000853611F4616014C0863609F40EC087362F
:1008300011F464600DC0883611F4686009C089360F
:1008400011F4606105C08A3611F4626001C0606411
:100850006093650221C0809100018C1307C0209134
:100860005C0230915D022A303105B8F080910701B9
:100870008093080180910601809307018091050112
:10088000809306018091040180930501809103010A
:1008900080930401C09303012FDD809100018C132C
:1008A00007C081E090E090935F0280935E0210C0E9
:1008B000C093000181E090E0909361028093600218
:1008C00010925F0210925E0210925D0210925C0222
:1008D00010925B0210925A0204C08C3609F0A4CF29
:1008E0009DCFCF91089580915A0290915B0200971D
:1008F00039F120915C0230915D023695279536954D
:1009000027958217930710F401963CC081E090E090
:1009100090935B0280935A0280910201882309F42C
:1009200067C0809165028093670280910001BEDC00
:1009300080936802FFD081115BC010926802FAC0F8
:1009400020915E0230915F0280916002909161027D
:1009500021153105E1F040919902442319F045E059
:1009600050E002C04EE150E0840F951F2817390770
:1009700038F42F5F3F4F30935F0220935E0208955B
:1009800081E090E090935B0280935A020895209159
:100990005C0230915D0221153105D9F0C29628170D
:1009A000390738F42F5F3F4F30935D0220935C028C
:1009B00008958FEF8093000110925D0210925C0207
:1009C000109261021092600210925F0210925E0219
:1009D0000895009769F08A3F910530F4019690934D
:1009E0006102809360020895109261021092600289
:1009F00008957F928F929F92AF92BF92CF92DF9293
:100A0000EF92FF920F931F93CF93DF9373E1E72E43
:100A100072E0F72E0EE012E0912CD701CD91DD911E
:100A20007D01F80171908F01972D90958881892320
:100A30008883F5E0FA95F1F7000056EFC52E51E0F6
:100A4000D52E6AEEA62E61E0B62E812C882D890D5A
:100A5000D601ED91FD916D01D5019D915D01208142
:100A60009223282F30E0F901EE58FD4F911105C077
:100A70009081911105C09CDD03C09081911156DCDD
:100A8000B5E08B0EECE38E12E1CF88818729888355
:100A900093949B12C2CF80916E02827090916602F5
:100AA00098139CDB20DF8FE19EE40197F1F700C0F3
:100AB0000000DF91CF911F910F91FF90EF90DF9099
:100AC000CF90BF90AF909F908F907F90089584B704
:100AD000877F84BF88E10FB6F894809360001092FE
:100AE00060000FBE90E080E80FB6F894809361003C
:100AF000909361000FBE4EDB7CDFFECF8091E8005B
:100B000080FFFCCF089580EA8093D80086E089BDFD
:100B100009B400FEFDCF80E88093D8001092E00079
:100B200010926F028CE08093E20078940895809197
:100B30006F02089580916F02882391F18FB7F89426
:100B400093E09093E9009091E4009E5C23E0309163
:100B5000E80035FD0EC08FBF80916F02882301F140
:100B60008091E4008917F1F08FB7F8942093E900A1
:100B7000EECF909167029093F1001092F100E8E6B9
:100B8000F2E091919093F10092E0EE36F907C9F707
:100B90009AE39093E800109270028FBF80E008956E
:100BA0008FEF08958FEF0895609367028093680236
:100BB000C1DF882329F41092670210926802BACF2D
:100BC00008951F920F920FB60F9211242F938F93B7
:100BD0009F93EF93FF938091E1001092E10083FFD8
:100BE0000FC01092E90091E09093EB001092EC009E
:100BF00092E29093ED0098E09093F00010926F02D3
:100C000082FF34C080916F02882381F120910D0111
:100C1000222361F1809171028F5F8093710290E0D5
:100C200083709070009711F583E08093E9008091C4
:100C3000E80085FF1BC0809170028F5F8093700277
:100C40008217A1F410927002809167028093F100E4
:100C50001092F100E8E6F2E081918093F10082E0E9
:100C6000EE36F807C9F78AE38093E800FF91EF9129
:100C70009F918F912F910F900FBE0F901F901895FD
:100C80001F920F920FB60F921124CF92DF92EF9224
:100C9000FF920F931F932F933F934F935F936F9305
:100CA0007F938F939F93AF93BF93EF93FF93DF93C4
:100CB000CF930F92CDB7DEB71092E9008091E80094
:100CC00083FF39C12091F1003091F1008091F10052
:100CD000C82EDD244091F100942F80E0C82AD92A43
:100CE0000091F10010E04091F100942F80E0082B7A
:100CF000192B6091F100A091F10082EF8093E80040
:100D0000363009F059C08BE790E09C012550304007
:100D1000FC013797459154914C155D05F9F4F901A3
:100D20004591549140175107C9F42E5F3F4FF90187
:100D3000859194912E5F3F4FF9012491462F50E009
:100D40007A2F60E0462B572B4F3F510519F010F0DA
:100D50004FEF50E0421750F4242F08C00796295F48
:100D60003F4FF0E08C3A9F0799F6E5C0AEEF409117
:100D7000E80050E0BA016570707061157105B9F353
:100D800042FDDCC0322F213208F030E2AC01632F8B
:100D900007C0FA014F5F5F4FE491E093F1006150AB
:100DA0006623B9F7830F911D231BA093E80022232C
:100DB000F1F63032E1F2C2C0353049F48EEF809363
:100DC000E8009CDE8C2D80688093E300B7C039304A
:100DD00031F5222309F069C0C0926F028EEF809333
:100DE000E80041E085EA90E04093E900FC010196CB
:100DF000E491E093EB00EE2369F09C012F5F3F4FFD
:100E0000FC0184918093EC00C9010196F9012491C1
:100E10002093ED004F5F453039F78EE141C0383007
:100E200039F4203809F041C069DE80916F0261C059
:100E30003323A9F4298362DE2981223851F40093F7
:100E4000E9009091EB0081E095FF80E01092E900CD
:100E500001C080E08093F1001092F10068C0313051
:100E600011F0333011F5223001F5C114D104E9F449
:100E7000402F4F77842F81508430B8F48EEF8093C9
:100E8000E8004093E900333009F455C089E18093CC
:100E9000EB0081E090E002C0880F991F4A95E2F7CD
:100EA0008093EA001092EA0049C00115110509F08B
:100EB00042C0213A09F5313089F420DE8091670281
:100EC0008093F1001092F100E8E6F2E081918093C6
:100ED000F10022E0EE36F207C9F729C0323021F4E2
:100EE0000DDE80910D0105C0333029F507DE8091BC
:100EF0000E018093F1001BC02132E9F4393061F416
:100F00008091E80082FFFCCF8091F10080936E0217
:100F10008BEF8093E8000BC03A3029F4D0920D019A
:100F20001092700204C03B3031F4C0920E018EEF7B
:100F30008093E80003C081E28093EB000F90CF9193
:100F4000DF91FF91EF91BF91AF919F918F917F9131
:100F50006F915F914F913F912F911F910F91FF9052
:100F6000EF90DF90CF900F900FBE0F901F901895CD
:040F7000F894FFCF23
:100F7400FF0101FFFFFFFFFFFFFF1D02017D012FA6
:100F8400012D012B01290119010602040017000596
:100F94000212000400150007003D003C003B003A2B
:100FA400000A0E13181D352B697D7B1E4B4E686D90
:100FB4001F4A506F6F2052516F67214D4F6F65224A
:100FC40035286F77235455622C245F5C597F256044
:100FD4005D5A6B26615E5B00275657636E2D292888
:100FE400532E462B697D7B3A0000686D3B00000060
:100FF400003C000000673D000000653E35000077BE
:101004003F79282A7C404A504C7F415251497E42C4
:101014004D4F0000434B4E007A4429484745352B39
:10102400697D291E1404686D1F1A161B1D200807EC
:101034000667211509196522170A0577231C0B1168
:101044002C24180D107F250C0E366B26120F373802
:10105400271333316E2D2F34302E08011001042054
:101064001010042080802900290029002300260074
:101074002900230026002300230026002300200447
:1010840040080228002B00250025002500352B6987
:101094007D291E0D09686D1F061C381420181A16A8
:1010A40067210E0410652208130C77231115172CE1
:1010B400240A121B7F250B0F056B261907363727C9
:0A10C4001D33316E2D2F34302E0045
:00000001FF
