:10000000A2C00000BBC00000B9C00000B7C0000023
:10001000B5C00000B3C00000B1C00000AFC0000018
:10002000ADC00000ABC00000A9C00000FDC50000CD
:100030005AC60000A3C00000A1C000009FC000007D
:100040009DC000009BC0000099C0000097C0000048
:1000500095C0000093C0000091C000008FC0000058
:100060008DC000008BC0000089C0000087C0000068
:1000700085C0000000010000AB001200020000BDBE
:10008000002200220000DF003F00210000CF000915
:10009000000300001E01040103090422010E0203F3
:1000A0000904320112000001C10600120100020021
:1000B000000020C0167C0400010102000109022298
:1000C00000010100C0320904000001030101000920
:1000D0002111010001223F000705830308000105EB
:1000E000010906A10175019508050719E029E71521
:1000F00000250181029501750881039505750105AB
:10010000081901290591029501750391039506755A
:1001100008150025680507190029688100C0040337
:1001200009040E03690062006E00540065006F0050
:100130000000120343006100740062006F00610060
:1001400072006400000011241FBECFEFD2E0DEBFBA
:10015000CDBF12E0A0E0B1E0EAEDFFE002C0059003
:100160000D92A233B107D9F712E0A2E3B2E001C0C9
:100170001D92A638B107E1F7DDD42DC741CF8AE43F
:1001800084B980E287B984E08AB98FEF85B988B9EC
:100190008BB9089580E88093610010926100EFDFD1
:1001A000569A3E9A519A469A599880910101811126
:1001B0005E98EAE4F2E0119282E0E638F807D9F7B7
:1001C000D5D4E8D48823E9F35E9A809101018111A6
:1001D00046988091460280933E02089520914602FF
:1001E000227020933E0280910A0190910B012223FC
:1001F000D9F021E08738920781F18B54914039F48E
:1002000087E891E090933C0280933B0206C087E828
:1002100091E090930B0180930A01469A809101012D
:100220008823D9F0599A089521E0863F9207A9F0D2
:100230008B54914039F486EF91E090933C02809387
:100240003B0206C086EF91E090930B0180930A0178
:1002500059988091010181114698089580910C016F
:10026000823091F488E080933F021092400295D44E
:100270002FEF80E792E0215080409040E1F700C0EE
:10028000000068E08CE211C084E080933F0210928D
:10029000400283D42FEF80E792E0215080409040CD
:1002A000E1F700C0000066E080E0B1C48C3310F5D7
:1002B000282F30E0F901E65BFD4F9081913039F451
:1002C000F901E55BFE4F80811816ACF013C0409138
:1002D0000A0150910B0161E04B34560731F0923026
:1002E00021F4F901E957FE4F03C0FA01E80FF11DAF
:1002F0008081089580E008950F931F93CF93DF933B
:10030000C3E0D1E000E412E08991D0DFF8018193ED
:100310008F01F1E0C930DF07B9F780913D0280938A
:100320003F02DF91CF911F910F9137C4CF93DF939D
:10033000C82F282F30E0F901E65BFD4FD081D13086
:1003400021F4F901E55BFE4F13C0E0910A01F09141
:100350000B01E20FF31F8081D63059F440913B022C
:1003600050913C024115510521F0FA01E20FF31FB3
:100370008081F901E65BFD4F108290913A02911164
:100380002FC18D3608F4A8C08D3739F4D33009F465
:1003900027C180913D028B7F08C08D3609F041C096
:1003A00080913D02D53031F48E7F80933D02DF9104
:1003B000CF91A2CF8D7F80933D029EDF809100017F
:1003C0008C1386C08091380290913902009709F40D
:1003D0007FC0C29708F07CC0D43009F479C0809106
:1003E0000A0190910B0121E08738920709F470C04F
:1003F0008B54914039F487E891E090933C028093CC
:100400003B0206C087E891E090930B0180930A01BC
:1004100025DF469A80910101882309F459C0599A31
:1004200057C08E36B9F580913D028F7D80933D0295
:1004300063DF809100018C134BC080913802909152
:100440003902009709F444C0C29708F041C0D43083
:1004500009F43EC080910A0190910B0121E0863F92
:100460009207B1F18B54914039F486EF91E090936B
:100470003C0280933B0206C086EF91E090930B0113
:1004800080930A01EBDE599880910101882301F1E4
:1004900046981EC0873709F0A3C080913D028D7F2A
:1004A00080933D0229DF809100018C1311C080915F
:1004B000380290913902009759F0C29748F4D2302F
:1004C00039F080913D02811103C060E08CE29FD33E
:1004D0008FEF809300016FC0853608F449C090917A
:1004E0000C01923051F4853621F480913D02877FD2
:1004F00009C0893609F070C002C08C3631F4809191
:100500003D028F7780933D021FC0853621F4809194
:100510003D028E7FF7CF90913D02863611F49D7F8C
:1005200011C0873611F49B7F0DC0883611F4977F78
:1005300009C0893611F49F7E05C08A3611F49F7D6B
:1005400001C09F7B90933D02D7DE1092390210923A
:100550003802109237021092360210923502109231
:10056000340210923302109232021092000138C00D
:10057000E3E0F1E080E091919C1759F08F5F8630C5
:10058000D1F707C0E82FF0E0ED5FFE4F9181908337
:100590008F5F8630B9F7B0DE809100018C130BC0FD
:1005A000109237021092360281E090E0909335026B
:1005B000809334020CC010923902109238021092CB
:1005C00037021092360210923502109234021092C5
:1005D00033021092320204C08C3609F09CCF8FCFC8
:1005E000DF91CF910895CF93C82F60913D02462FA0
:1005F0004D7D282F30E080917102811104C0442389
:1006000021F082E003C081E001C08FEFF901E65BD9
:10061000FD4F8083813021F4F901E55BFE4F06C078
:10062000E0910A01F0910B01EC0FF11D7081711145
:1006300023C08C2F90E0E0910A01F0910B01E80FAC
:10064000F91F7081442311F042E001C04FEFF9011E
:10065000E65BFD4F408371110FC040913B0250910A
:100660003C024115510541F0611106C0DA01A80FA5
:10067000B91F7C9186E0808380913A02882321F023
:100680007A3709F061C19AC07D3608F4E0C07D3741
:1006900019F5F901E65BFD4F8081813019F464E0C2
:1006A0008BE25CC0611104C084E080933D0202C013
:1006B00083E0808380913D0280933F028BE28093B0
:1006C00040026BD22FEF40E782E021504040804053
:1006D000E1F700C0000013C17E3749F5F901E65B80
:1006E000FD4F8081813009F00BC1627209F408C1AD
:1006F00020913B0230913C022115310549F03093A5
:100700000B0120930A0110923C0210923B02F8C0A8
:1007100080910A0190910B0190933C0280933B02DF
:100720008FE091E090930B0180930A01E9C07C3740
:10073000B9F4F901E65BFD4F8081813071F4862FB9
:10074000827259F080910C018F5F80930C0183308D
:1007500008F4D6C010920C01D3C08CE258D2D0C09D
:100760007D3691F4862F827239F0F901E65BFD4FF8
:1007700085E08083616019C06623B1F0F901E65B12
:10078000FD4F84E0808310C07E3611F460620DC09E
:100790007B3741F481E090910201911180E08093D8
:1007A0000201AEC0773721F4626060933D02A7C0BA
:1007B0007F3609F4A5C07A37D1F410C010923A02FE
:1007C00080910101882309F49BC020910A01309196
:1007D0000B0191E02738390761F124C081E0809353
:1007E0003A025E9A469A599868E08FE0B7CF793717
:1007F00009F086C0627209F483C0809101018823E8
:1008000031F0109201015E9A469A599879C081E0C0
:100810008093010120910A0130910B0141E02738BA
:10082000340739F080913B0290913C028758914007
:1008300009F4599A265F314041F080913B02909132
:100840003C02865F914009F05BC0469859C07536FE
:10085000B0F180910C01823039F4753609F416C07C
:10086000793609F06DC002C07C3611F4606819C099
:10087000753611F4616015C0763611F4626011C0EE
:10088000773611F464600DC0783611F4686009C0E1
:10089000793611F4606105C07A3611F4606201C0E6
:1008A000606460933D0228DD109239021092380294
:1008B00010923502109234021092000121C08091F2
:1008C00000018C1306C080913402909135020A9782
:1008D000B8F0809107018093080180910601809310
:1008E00007018091050180930601809104018093A6
:1008F00005018091030180930401C0930301FCDC96
:10090000809100018C1307C081E090E09093370242
:100910008093360210C0C093000181E090E0909374
:1009200039028093380210923702109236021092E8
:10093000350210923402109233021092320204C037
:100940007C3609F099CF92CFCF91089580913202F1
:1009500090913302009739F12091340230913502A1
:1009600036952795369527958217930710F40196AB
:100970003CC081E090E090933302809332028091FA
:100980000201882309F467C080913D0280933F02F1
:10099000809100018BDC80934002FFD081115BC00D
:1009A00010924002FAC020913602309137028091B5
:1009B00038029091390221153105E1F04091710220
:1009C000442319F045E050E002C04EE150E0840FAE
:1009D000951F2817390738F42F5F3F4F30933702A0
:1009E00020933602089581E090E090933302809343
:1009F00032020895209134023091350221153105DB
:100A0000D9F0C2962817390738F42F5F3F4F30933B
:100A100035022093340208958FEF809300011092E5
:100A2000350210923402109239021092380210925C
:100A30003702109236020895009769F08A3F9105B7
:100A400030F4019690933902809338020895109201
:100A500039021092380208957F928F929F92AF923E
:100A6000BF92CF92DF92EF92FF920F931F93CF939B
:100A7000DF937CEEE72E71E0F72E07EE11E0812C7C
:100A8000D701CD91DD917D01F80191908F01992DD4
:100A90009095888189238883F5E0FA95F1F7000025
:100AA0005FECC52E51E0D52E63ECA62E61E0B62E8C
:100AB000712C872D880DD601ED91FD916D01D50129
:100AC0009D915D0120819223282F30E0F901E65BA2
:100AD000FD4F911105C09081911105C084DD03C0C7
:100AE0009081911123DCB5E07B0EECE37E12E1CF27
:100AF00088818929888383948B12C2CF8091460292
:100B0000827090913E02981369DB20DF8FE19EE4B2
:100B10000197F1F700C00000DF91CF911F910F9175
:100B2000FF90EF90DF90CF90BF90AF909F908F900D
:100B30007F90089584B7877F84BF88E10FB6F894CB
:100B400080936000109260000FBE90E080E80FB6C6
:100B5000F89480936100909361000FBE1BDB7CDFF3
:100B6000FECF8091E80080FFFCCF089580EA80935B
:100B7000D80086E089BD09B400FEFDCF80E88093EF
:100B8000D8001092E000109247028CE08093E200BF
:100B900078940895809147020895809147028823B0
:100BA00091F18FB7F89493E09093E9009091E4006D
:100BB0009E5C23E03091E80035FD0EC08FBF809130
:100BC0004702882301F18091E4008917F1F08FB783
:100BD000F8942093E900EECF90913F029093F100BA
:100BE0001092F100E0E4F2E091919093F10092E034
:100BF000E634F907C9F79AE39093E80010924802A7
:100C00008FBF80E008958FEF08958FEF0895609370
:100C10003F0280934002C1DF882329F410923F02F3
:100C200010924002BACF08951F920F920FB60F9202
:100C300011242F938F939F93EF93FF938091E10063
:100C40001092E10083FF0FC01092E90091E09093B1
:100C5000EB001092EC0092E29093ED0098E09093FC
:100C6000F0001092470282FF34C08091470288232F
:100C700081F120910D01222361F1809149028F5F62
:100C80008093490290E083709070009711F583E0A3
:100C90008093E9008091E80085FF1BC080914802A5
:100CA0008F5F809348028217A1F4109248028091CE
:100CB0003F028093F1001092F100E0E4F2E08191B4
:100CC0008093F10082E0E634F807C9F78AE3809365
:100CD000E800FF91EF919F918F912F910F900FBEA0
:100CE0000F901F9018951F920F920FB60F9211241C
:100CF000CF92DF92EF92FF920F931F932F933F9328
:100D00004F935F936F937F938F939F93AF93BF9313
:100D1000EF93FF93DF93CF930F92CDB7DEB710928F
:100D2000E9008091E80083FF39C12091F100309102
:100D3000F1008091F100C82EDD244091F100942F44
:100D400080E0C82AD92A0091F10010E04091F1001A
:100D5000942F80E0082B192B6091F100A091F100F5
:100D600082EF8093E800363009F059C08BE790E0BD
:100D70009C0125503040FC013797459154914C150A
:100D80005D05F9F4F9014591549140175107C9F4F3
:100D90002E5F3F4FF901859194912E5F3F4FF901EE
:100DA0002491462F50E07A2F60E0462B572B4F3F7F
:100DB000510519F010F04FEF50E0421750F4242F76
:100DC00008C00796295F3F4FF0E08C3A9F0799F6DD
:100DD000E5C0AEEF4091E80050E0BA016570707078
:100DE00061157105B9F342FDDCC0322F213208F0E4
:100DF00030E2AC01632F07C0FA014F5F5F4FE4910F
:100E0000E093F10061506623B9F7830F911D231B16
:100E1000A093E8002223F1F63032E1F2C2C035306F
:100E200049F48EEF8093E8009CDE8C2D80688093DF
:100E3000E300B7C0393031F5222309F069C0C09210
:100E400047028EEF8093E80041E085EA90E040930E
:100E5000E900FC010196E491E093EB00EE2369F0D8
:100E60009C012F5F3F4FFC0184918093EC00C901EE
:100E70000196F90124912093ED004F5F453039F739
:100E80008EE141C0383039F4203809F041C069DEC4
:100E90008091470261C03323A9F4298362DE29814E
:100EA000223851F40093E9009091EB0081E095FF26
:100EB00080E01092E90001C080E08093F100109280
:100EC000F10068C0313011F0333011F5223001F5F6
:100ED000C114D104E9F4402F4F77842F815084301E
:100EE000B8F48EEF8093E8004093E900333009F4C2
:100EF00055C089E18093EB0081E090E002C0880F4B
:100F0000991F4A95E2F78093EA001092EA0049C0DF
:100F10000115110509F042C0213A09F5313089F473
:100F200020DE80913F028093F1001092F100E0E416
:100F3000F2E081918093F10022E0E634F207C9F7F4
:100F400029C0323021F40DDE80910D0105C033300F
:100F500029F507DE80910E018093F1001BC021323C
:100F6000E9F4393061F48091E80082FFFCCF809190
:100F7000F100809346028BEF8093E8000BC03A307B
:100F800029F4D0920D011092480204C03B3031F494
:100F9000C0920E018EEF8093E80003C081E280933F
:100FA000EB000F90CF91DF91FF91EF91BF91AF9147
:100FB0009F918F917F916F915F914F913F912F9171
:100FC0001F910F91FF90EF90DF90CF900F900FBE89
:0A0FD0000F901F901895F894FFCFC2
:100FDA00FF0101FFFFFFFFFFFFFFF601017D013562
:100FEA002B697D7B1E4B4E686D1F4A506F6F2052D6
:100FFA00516F67214D4F6F652235286F77235455FE
:10100A00622C245F5C597F25605D5A6B26615E5BAA
:10101A0000275657636E2D2928532E462B697D7B50
:10102A003A0000686D3B000000003C000000673D8C
:10103A00000000653E350000773F79282A7C404A47
:10104A00504C7F415251497E424D4F0000434B4E16
:10105A00007A4429484745352B697D291E140468BE
:10106A006D1F1A161B1D2008070667211509196529
:10107A0022170A0577231C0B112C24180D107F2523
:10108A000C0E366B26120F3738271333316E2D2F7D
:10109A0034302E0801100104201010042080802909
:1010AA000029002900230026002900230026002306
:1010BA0000230026002300200440080228002B00F9
:1010CA00250025002500352B697D291E0D09686D2F
:1010DA001F061C381420181A1667210E04106522E0
:1010EA0008130C77231115172C240A121B7F250BC2
:1010FA000F056B2619073637271D33316E2D2F340E
:02110A00302E85
:00000001FF
